:102000000080002029320100792C010027320100D4
:1020100000000000000000000000000000000000C0
:102020000000000000000000000000002732010056
:102030000000000000000000273201007D32010096
:102040002732010027320100273201002732010028
:102050003D2C010027320100D1C8000071E10000D1
:1020600027320100011C0100273201002732010044
:10207000C97F000027320100111C01002732010036
:1020800027320100273201002732010027320100E8
:102090000000000027320100273201002732010032
:1020A00027320100273201002732010027320100C8
:1020B0000000000010B5064C2378002B07D1054B1B
:1020C000002B02D0044800E000BF0123237010BDA4
:1020D000200400200000000048020200044B10B55C
:1020E000002B03D00349044800E000BF10BDC046E8
:1020F00000000000240400204802020010B52D203A
:1021000011F0F6FA12F008FF054912F0A7FB14F0DF
:1021100057FD044A044B13F0ABFE14F099FD10BDBB
:102120000D68533B9A9999999999134010B5FFF707
:10213000E5FF10BD7FB5194D1949280005F0BCFA1F
:10214000041E0BD1174804F0AFFF0D2002F0B8FFBA
:102150000D2002F0A3FF200004B070BD6846124AB3
:10216000124905F03BFC280005F0BCFA002807D016
:102170000F4804F099FF6946280005F0BAFAEAE72B
:10218000684605F08FFC2900060002A805F018FB40
:1021900002A805F087FC8642EAD8DCE73C04002070
:1021A0007C0D0020D8C90100FCC9010005CA01004E
:1021B00011CA010030B58FB004AC05000D492000F4
:1021C00005F0FEFAFA206179A3786278039121790B
:1021D000C0000291E178019121780918009106A8C8
:1021E000054915F0BFFE280006A910F09DFD280046
:1021F0000FB030BD3C0400203ECA01007FB56846E8
:10220000FFF7D8FF084804F02FFF694603A810F035
:10221000ECFD03A804F068FF03A810F03DFD68463C
:1022200010F03AFD07B000BD5CCA010010B5040013
:10223000283010F031FD2000183010F02DFD200066
:102240000C3010F029FD200010F026FD200010BDFC
:10225000F0B53D4C87B0A36800902000019310F0CA
:10226000D4FF3A4F3A4B390003A86362636310F01E
:102270005BFD03A9200010F0E1FE050003A810F0AB
:102280000BFD390003A86F1C10F04EFD3A0003A9A6
:10229000200010F0C3FE060003A810F0FDFC2B0088
:1022A0000022210003A810F0F5FE200003A90C3045
:1022B00010F0A5FD03A810F0EFFC002D38DD330071
:1022C0003A00210003A810F0E5FE200003A9183011
:1022D00010F095FD03A810F0DFFC002E2EDD21008C
:1022E000019B721C03A810F0D5FE200003A9283022
:1022F00010F085FD03A810F0CFFC134C236A002BCF
:1023000005D0A06914F074FD14F0A2FC6062236B88
:10231000002B05D0A06A14F06BFD14F099FC6062EC
:10232000210000980C3110F060FD009807B0F0BD5E
:1023300020000849183010F06AFDCEE70248054930
:10234000283010F064FDD8E70C00002071CA0100AD
:102350000000C07FD7D8010010B5C824013C044953
:102360000448A4B20FF018FD002CF7D110BDC046F0
:1023700086E401000C12002070B504000D0010F07E
:1023800034FD290020000C310C3010F02EFD290006
:1023900020001831183010F028FD290020006B6A49
:1023A00028316362283010F020FD6B6B20006363DE
:1023B00070BD0000F0B591B002A8FFF749FF02A878
:1023C00010F06AFC9B4902A810F0AEFC9A4C02A8DF
:1023D00025000C35290010F0EFFD060002A810F0D2
:1023E0005BFC002E04D00022944B1A700124BAE04A
:1023F000934902A810F098FC290002A810F0DCFD17
:10240000060002A810F048FC002E02D003F056FC93
:10241000ECE78C4902A810F087FC290002A810F014
:10242000CBFD060002A810F037FC002E11D00123CE
:10243000854C864822785340237004F0F5FD2378BC
:102440008348002B00D1834804F066FE02F0D8FADE
:10245000CCE7814902A810F067FC290002A810F01F
:10246000ABFD070002A810F017FC002F3ED0236A36
:10247000002B05D1FFF7C2FE784804F04DFEB5E70A
:10248000270018373100380010F0BAFD007816F038
:10249000C9FC31000500380010F0B2FD0570704D28
:1024A0000A22216A28000FF0E6FC0A222800216B8C
:1024B0000FF0E1FC236A0B2B16D1236B082B13D1F1
:1024C000A169A26A684605F03EFA684605F0EAFA94
:1024D000029002A8039614F090FC04F01DFE6946D9
:1024E000604805F006F981E75F48C6E75F4902A842
:1024F00010F01AFC290002A810F05EFD060002A8E8
:1025000010F0CAFB002E03D0626A4F4B5A609DE761
:10251000574902A810F008FC290002A810F04CFD51
:10252000060002A810F0B8FB002E03D003F0C2F999
:102530005048A2E7504902A810F0F6FB290002A873
:1025400010F03AFD060002A810F0A6FB002E0DD0F8
:1025500001244A4D4A482B7863402B7004F064FDF7
:10256000287804F0BFFC200011B0F0BD454902A856
:1025700010F0DAFB290002A810F01EFD060002A8E8
:1025800010F08AFB2D4D002E03D0FFF7E5FE01234E
:102590002B703D4902A810F0C7FB210002A80C31A6
:1025A00010F00AFD060002A810F076FB002E03D002
:1025B000FFF7D2FE02232B70344902A810F0B4FBBF
:1025C000210002A80C3110F0F7FC060002A810F060
:1025D00063FB002E03D0FFF7BFFE03232B702B7885
:1025E0002B4D012B0CD1210002A8FFF7C5FE296855
:1025F00002A800F015FA040002A8FFF717FEB2E7E0
:10260000022B08D1210002A8FFF7B6FE296802A814
:1026100004F0F4FAEFE7032B08D1210002A8FFF73A
:10262000ABFE296802A802F0C9FEE4E7286804F0BE
:102630003BFDDBE673CA01000C00002049040020CA
:102640005ACA010075CA01008400002079CA01003D
:102650009DCA0100CACA0100CECA0100D4CA010045
:102660000C1200203C04002018CB010096CB010086
:10267000A3CB0100A8CB0100C5CB01004A04002078
:10268000CBCB0100DDCB0100E0CB0100E5CB0100AD
:102690000400002037B5002110480B000A0000910B
:1026A0000FF02AFB0E4D0F4C2900200010F03CFBD0
:1026B000200029000C3010F037FB200029001830D2
:1026C00010F032FB20002900283010F02DFB2000F4
:1026D000054A064911F03EF937BDC04640040020C6
:1026E000D7D801000C000020000000202D2200009F
:1026F000F8B50024224E234B30001C700BF03AF941
:10270000A04203D0204B1C80204B1C701F4B1C7818
:10271000002C33D130000BF02DF91D4D002814D0C2
:1027200030000BF044F9C4B20A2C0CD10123174A33
:102730001370144A137000232B80134B124A1B880A
:1027400001331380E2E70D2CF0D02B88772BEDD0EE
:1027500096210D4A490012888A42E7D2002CECD01B
:102760000C4F002B03D138000B4910F050FB210017
:10277000380010F0B0FB2B880133DDE7F8BDC04610
:102780000C120020480400204E0400200800002005
:102790004C0400200C000020D7D8010070B503F0D5
:1027A00099FA041E02D10024200070BDFFF7A0FF9B
:1027B0000E4B1D78002D07D003F070FA2C00FFF7A8
:1027C000F9FD03F023FAEFE7094B1B78012B02D147
:1027D00000F0A4F8E8E7022B02D104F0BBF9E3E72C
:1027E000032BE0D102F0C0FDDEE7C0464804002024
:1027F0004904002010B5174804F08EFC302010F07A
:1028000007FE002315221421040004F0C3FEFA2160
:10281000200049000FF009FF96212000890104F0F3
:1028200019FF642010F078FD20000B490FF08FFA9B
:102830000A22642120000FF000FB23680D211B6891
:1028400020009847642010F067FD200004F030FF5E
:1028500010BDC0469AD10100DBD1010010B5FFF7D1
:10286000C9FF10BD10B5102010F0D2FD0400642186
:1028700004F07AFC014B1C6010BDC04650040020DF
:102880000E4B10B5186804F07AFC0D4B1870013827
:102890000023032807D811F06FF802080C0E09482E
:1028A00004F0E2FB0123180010BD074804F034FCDB
:1028B000F8E70648FAE70648F8E7C0465004002063
:1028C00054040020E0D10100F8D1010011D2010030
:1028D0002AD201000C4B70B51B780C4C0C4D002B10
:1028E00008D1206804F047FC002803D0206804F0D9
:1028F00083FC28702B78022B02D0206804F0B0FCF7
:10290000206804F03AFC70BD5504002050040020FB
:102910005404002010B5FFF7DDFF10BD10B510F016
:10292000B5FC0322074B4343D341074A934208D8DF
:10293000FFF7D0FF011C054804F0EEFA044804F04C
:10294000EBFB10BDD578E9263789410040D2010064
:10295000D7D80100F0B5037806000C008BB0632BCC
:1029600002D0FA27722B00D1264F10F08FFC019075
:10297000254D286804F003FC03280FD010F086FCD6
:10298000019BC01AFA239B00984207D2FFF778FFF9
:102990002022286802A904F0F5FBE9E73100286845
:1029A00004F044FC3000194915F017FB002808D149
:1029B000002C03D1164804F0AFFB013420000BB00B
:1029C000F0BD002C02D1134804F0A6FB380010F033
:1029D000A3FC202202A9286804F0D4FB286804F094
:1029E000CEFB0D4B010018700A220C480FF025FA9F
:1029F00002A804F091FB0124FFF742FF4440E4B237
:102A0000DCE7C0463A0200005004002054D2010026
:102A10005AD2010066D20100540400200C1200209A
:102A200030B58BB00D00010001A810F0DEF91D4992
:102A300004A810F079F91C4907A810F075F904A949
:102A400007AA01A810F04EFB07A810F025F904A86A
:102A500010F022F9019C1549200015F0BEFA00285B
:102A600019D1280004F020FB114804F01DFB114887
:102A700004F052FB104804F0F7FA01210F48FFF769
:102A800069FF0F4804F048FB002401A810F004F986
:102A900020000BB030BD20000021FFF75BFF041EBB
:102AA000DFD0F2E771CA0100DED10100DDCB010009
:102AB0007ED201005BD6010099D60100AED601009E
:102AC000E9E701000020704710B5103007F058F812
:102AD00010BD13B56B46DC1D01222100103006F03D
:102AE0008DFF012801D1207816BD01204042FBE76F
:102AF00010B5103007F040F910BD10B5103007F0D8
:102B0000EFFA10BD07B56B46D971073301221900E2
:102B1000103007F0E5FA0EBD030010B5002802D012
:102B200015F06DFA0300180010BD10B500690368B8
:102B30001B69984710BD10B5006903685B69984729
:102B400010BD10B5006903689B69984710BD07B5B3
:102B5000C90041180822684614F0F9FA0098019952
:102B600003B000BD037C020000201B0704D5D36A1C
:102B7000506A181A00D501487047C046FFFFFF7F12
:102B80000A21435E0200181E01D01B01D0187047B5
:102B900070B505000E000468002C04D02000FFF77B
:102BA000EFFF86420ED13000FFF7EAFF002C0BD07A
:102BB000031E02D0031B1B111BB26381002800D12E
:102BC0006C6070BD0400E7E72860F7E7F8B50D1EFC
:102BD0001AD00468002C17D02800FFF79DFFE76883
:102BE00006003800FFF798FF864208D100239E4276
:102BF0000BD0E95CFA5C914201D10133F7E7200088
:102C0000FFF7BEFF0400E5E700242000F8BDF7B59C
:102C10000D1E0091019217D00468002C14D0E668B4
:102C2000019F3000FFF778FFB84208D10023BB4274
:102C30000BD0E95CF25C914201D10133F7E720004F
:102C4000FFF79EFF0400E8E700242000FEBD10B55A
:102C5000002813D0027A402314001C401A420CD0E2
:102C6000006800280AD0002908D00A22835E0139B2
:102C7000002B04D01B01C018F5E7200010BD180080
:102C8000FCE7020048688B681030834203D20123BE
:102C900000200B747047103B18008B605368002BAA
:102CA00008D0C11A09115981002350604381037271
:102CB000C360EFE71060F7E770B50025436A0400D2
:102CC000C3181D71011D006810F0F8F8A84200D06B
:102CD0006562606A70BD436A70B5013304000D001F
:102CE0001F2B06D8606A431C2018636205710120FF
:102CF00070BDFFF7E1FF0028F4D00020F8E70000E6
:102D0000F0B5037805000F0089B02B2B31D00022DD
:102D100003922D2B02D101352C3B03932B781A0003
:102D2000303A092A04D9002200922E2B00D0AEE0BE
:102D3000002000217F4E2B781C00303CE4B2092C8F
:102D40001AD8B14224D802D17B4B984220D8002314
:102D50000A2211F049F8002304940593E3434A1C26
:102D600001D1984214D8049B059C0135C0186141DB
:102D7000E1E700230135D0E7002B09D1039B002BAD
:102D800025D080231B06994202D811D100280FD0EC
:102D9000802600247603B14224D2641B2B191BB277
:102DA00004932B781A00303A092A22D80135F5E726
:102DB0007F223B7A93431A000A2313433B7200237A
:102DC00042428B413A607B60039B00935FE07F222D
:102DD0003B7A3860796093431A00082313433B72AF
:102DE0000123F2E70A220023013410F0DDFF24B2B0
:102DF000D1E72E2B1DD1514E01352C78303CE4B259
:102E0000092C16D8B14212D802D14D4B98420ED897
:102E100000230A2210F0E8FF002306940793069B84
:102E2000079CC0186141049C013C23B20493013506
:102E3000E3E720222B7800249343452B45D16B7880
:102E40002D2B27D12C3B023500939A235B000024C5
:102E50000A229C462B78303BDEB2092E31D85443EF
:102E60001C19049B1B19634529DD00997F223B7ABD
:102E7000002916D0039900240025002901D08025BF
:102E80002D0693430C223C607D6013433B720098F7
:102E900009B0F0BD2B2B02D001350094D5E70235E7
:102EA000FBE703990020002907D1264993430C2210
:102EB0001343386079603B7292E72349F6E70135A6
:102EC000C8E7009B002B00D0644200232D780093BC
:102ED0009D42DCD1049B1C1911F078F81B4E002C8C
:102EE00000DC1B4EE317E4185C40002C10D00123DB
:102EF0001C4209D0EB00F318009001911A685B683E
:102F00000098019912F0B4FF01356410EDB2ECE7BE
:102F1000039B002B02D080231B06C9187F223B7A1B
:102F200093431A000C2313433B7202000B003A60D8
:102F30007B6055E7999999199999999999990100FF
:102F4000989999990000F07F0000F0FFF8DA0100ED
:102F5000B0DA01000268536843609168CB1A00211F
:102F6000C36081608B4201D1012313747047836871
:102F700010B5C4685A1CA24203D244688260E1546E
:102F800010BD012203681A74FAE700000023FA2238
:102F9000436003828374024B920082600360704737
:102FA00048DA010013B501210E4B0F4A1868084298
:102FB0000CD10E48006810600D48006850600D4844
:102FC000006890600C4800681960D060D3680B4CB2
:102FD000019393682000009309490CCA14F0C2FFC2
:102FE000200016BD58040020640400200CA08000BE
:102FF00040A0800044A0800048A08000740400200D
:10300000B4D6010010B586B004000F4968460FF031
:103010008BFE694603A80FF0E8FE0C4903A80FF0E9
:103020008FFF0B490FF08CFF0A490FF089FF010059
:1030300020000FF0DAFE03A80FF02EFE68460FF016
:103040002BFE200006B010BDC9D60100E4D6010059
:1030500074040020F4D6010010B586B004000F49B6
:1030600068460FF061FE694603A80FF0BEFE0C49EA
:1030700003A80FF065FF0B490FF062FF0A490FF03C
:103080005FFF010020000FF0B0FE03A80FF004FE68
:1030900068460FF001FE200006B010BDC9D6010041
:1030A000FAD6010095040020F4D6010070B5002581
:1030B00004008560280010F0AFF92060280010F0AF
:1030C000ABF9606070BD0000F0B5936889B02E4D1B
:1030D0000590581C14000691A84236D8800010F0C4
:1030E0009BF9A3680390581CA84231D8800010F0C7
:1030F00093F90025A368049001930295019BAB42CC
:1031000029DD2368AE009F19029B002B0DD1396881
:10311000059810F021FE002807D0039B059A9A51CC
:10312000049B069A9A51012302933A68029B0792E4
:103130000799039A5B199B00D15062680135925937
:1031400007920799049AD150D8E701204042C6E778
:1031500001204042CBE7019B019ADB43DB17134080
:10316000029A002A06D1039A05999B00D150049A2D
:103170000699D150039B2360049B6360019B01333C
:10318000A36009B0F0BDC046FEFFFF1FF7B50F00FA
:10319000011C041C11F044FE00285AD1BB68251CF8
:1031A0000193002B0AD03E687B683168201C009395
:1031B00010F0DCFD002803D0009B1D68281CFEBD1C
:1031C0006B461D79244B201CED18AD00715910F091
:1031D000E1FD0123002802D0009B5D59EEE7019339
:1031E000019B201C9D007759391C10F0C9FD002857
:1031F00003D0019B0133DBB2F1E7009B391C201C9B
:103200005D5910F0A3FD0028D8D1134A019B9446C4
:103210006344009A9B00F658D358311C201C00933D
:1032200011F036FC0099041C281C11F031FC011C23
:10323000201C11F013FB311C041C381C11F028FC5D
:10324000011C201C11F040F9009910F0A1FF051C91
:10325000B4E7024DB2E7C046FFFFFF3F0000C07F6A
:10326000F7B50400184803F0FFFEA368174E002BC3
:1032700025DD00252368AF00D85913F0A1FC0B0011
:1032800002210200009130000EF0BEFE104803F053
:10329000EBFE63680135D85913F092FC0B00022154
:1032A0000200009130000EF0AFFE0A4803F0DCFE91
:1032B000A368AB42DEDC30000EF052FDF7BD0648DD
:1032C00003F0D2FEF7E7C04607D701000C1200203A
:1032D00015D7010018D701001CD701000200F0B576
:1032E00000684C6855680319AB4210D21B78002B5C
:1032F00008D10D689C420BD0EF5CC65CB74201D18F
:103300000133F7E703780130002BFBD1EAE7002017
:10331000F0BD73B546680C00019169460500009642
:10332000FFF7DCFF002804D13419631C6B602070A8
:10333000300076BD03002833036043609D33FF33C4
:103340008360C3600023421C0374D377704770B559
:10335000057A0200202428002040254202D01000D7
:10336000FFF734FC70BD10B51830FFF7F0FF431EB7
:103370009841C0B210BD1FB5031E2BD07F22007A2A
:1033800010400438082825D810F0F6FA1414052443
:103390000A240F241F00187811F0BEFD05B000BDEF
:1033A0001868596810F0EEFDF8E71868596810F0D1
:1033B000B5FDF3E76A461868002369461372FFF704
:1033C0009FFC6846FFF7D7FFE8E71868596813F0D5
:1033D0003FFCE3E70020E1E77F2230B50300007AFD
:1033E00085B010400438082810D810F0C5FA1D1D0B
:1033F000050F080F110F2800187805B030BD09CB54
:10340000002B03D180231B069842F6D30020F4E75B
:1034100080221C685D680023120612196B4100208F
:103420008342EAD12000E8E76A461868002369462B
:103430001372FFF765FC6846FFF7CEFFDDE71C68F7
:103440005D68002220002900084B10F069FC00286C
:10345000D3D020002900064A064B10F04DFC00286E
:10346000CBD02000290013F01FFBC6E70000E0C10D
:103470000000C0FFFFFFDF41F8B58E680500300097
:103480000F0013F037FE03005A1E93415B421E40AB
:10349000041E6860AE6003D03200796813F057FEF6
:1034A000002E0BD0F9683E692000761A320013F026
:1034B0004EFEEC60A4192C612800F8BDEE602E6170
:1034C000FAE7000070B5040086B010000E00150089
:1034D00013F010FE0290002817D1039000236360C0
:1034E000FA230490059020009B00A3600A4B01A9D9
:1034F000236026611830FFF7BFFF029813F004FE27
:103500002000064B236006B070BD03956A1E9541EE
:103510006D422840E2E7C0466CDA010090DA010013
:1035200010B5040008002269E168914203D00368E5
:10353000521A5B68984763682361E36010BD10B559
:10354000046918302100FFF7EBFF23682000DB68D7
:10355000984710BD10B50400054B21690360183071
:10356000FFF7DEFFE06913F0CFFD200010BDC0467D
:103570006CDA0100030070B51D6A0069002D05D1E9
:1035800003681B6898470400200070BD9A6A5C6A53
:10359000141BA54205D14C210A4B0B4A0B4813F0D2
:1035A00009FC541C9C621170596A9A6A0124521ACF
:1035B000196A8A42E8D1183301001800FFF7B0FFFA
:1035C000E2E7C0462CD7010036D70100D5D701006D
:1035D000F7B504000769636A806A16000025019147
:1035E00098421AD0C51A236A5D1B954200D915006E
:1035F0002A00019913F0ABFD019AA36A52190192B6
:10360000626A5B19A3629B1A226A761B934204D1F9
:10361000200039001830FFF783FF002E09D0226AFE
:10362000964208D33B68320038005B68019998479E
:103630002D182800FEBDA06A636AC31AD31A1F00A2
:10364000B34200D937003A00019913F080FDA36A14
:10365000ED19DB19A362ECE737B5437E0400002BBC
:103660000CD16B46DD1D0122290040690EF0DFFF01
:10367000031E00D02B78237601236376207E3EBD87
:1036800070B5040001252000FFF7E6FF031E0BD0F4
:10369000093BDBB2172B0CD82A009A40074B1A4281
:1036A00007D000236376EEE7207C431E984101306B
:1036B00070BD012300202374FAE7C0461300800088
:1036C00070B505000C00207800280CD02800FFF70A
:1036D000C3FF002806D02378834205D1002301349C
:1036E0006B76F0E7022070BD0320FCE7F0B5160012
:1036F0001F0009230500837285B0002230003900C5
:103700006E4B10F00DFB002863D0002308240093BB
:103710000133FF33019321006948FFF718FA3200A3
:103720003B0010F0E9FA002811D021006548FFF7AE
:103730000EFA02000B003000390012F099FB019ADA
:10374000060094460F00009B63441BB20093019B4C
:103750005B100193013CDED2039400220023300071
:10376000390010F0D3FA00283AD030003900564A18
:10377000564B10F0C1FA002832D000230293029A6F
:10378000039B9C1A23062BD421004E48FFF7DFF938
:1037900000224F4B12F06CFB32003B0010F0B6FAE7
:1037A000002810D021004648FFF7D1F902000B0095
:1037B0003000390012F05CFB0F00009B019A0600FC
:1037C000981A03B20093019B5B100193029B013393
:1037D000D4E780235B000193F83B03930090BCE7A0
:1037E000009B300039002B8110F03EFB394C0190DA
:1037F00028600290029B092B0DD90A21200010F0AD
:10380000D9F8AB7A0400013B02980A21AB7210F0A0
:10381000D1F80290EEE7019813F0ACF902000B002A
:103820003000390012F090FD060020000F0013F068
:10383000A1F902000B003000390012F019FB0F0053
:10384000060010F011FB029013F094F902000B0037
:103850003000390012F078FD0B00020011F098FBE7
:1038600010F002FB029BC018A04214D268600A2626
:10387000194F01226868194B4343D341BB421AD800
:103880000A242C57002C16DD310010F093F8013C6F
:103890006860AC72EDE700236B60019B009A013316
:1038A0002B60002AE3D0092BE1D91000012301305D
:1038B00028812B60DBE7280005B0F0BDD012634102
:1038C000F8DA0100B0DA0100F168E388B5F8E43E07
:1038D0000000244000CA9A3B99999919CDCCCCCCD0
:1038E00010B5002801D0FFF732FD10BD70B50400FF
:1038F0000D00FFF7B1FE0023A84201D1637601332A
:10390000180070BDF0B589B004001F000291039249
:10391000002820D0037A0E00019219007F22114066
:10392000134205D193435F3A134303720160416030
:10393000227A2023110019401A4243D0002E09D0C8
:10394000019A3100200004960592FFF760F90028E3
:1039500004D006003400200009B0F0BD390020007A
:10396000FFF78FF9051E16D0019B380006A90696B1
:103970000793FFF7B3FC00281DD1019A7B68013241
:10398000B9689A188A4208D901233B74290020009B
:10399000FFF7FEF800252E00DCE77A60002BF5D05B
:1039A000019A824203D0325C1A540130F8E70022B7
:1039B000180001995A5480232A7A5B4213432B72D0
:1039C000E860E8E70C00C6E770B505000C001600DB
:1039D000002826D02B7A08007F22190011401342BC
:1039E00005D193435F3A13432B72296069602A7AA9
:1039F0002023110019401A4215D0002C10D02100AC
:103A00002800FFF7E3F800280AD131002800FFF76B
:103A100038F9002804D07F22037AC460134003726F
:103A20000500280070BD0D00FBE70000F0B50600A2
:103A3000504B18360400020085B030004E491D7806
:103A4000FFF7C2FF002807D07F22037A0570934357
:103A50001A00062313430372464B220030004749E5
:103A60005F68FFF7B1FF051E0BD07F22037A9343F7
:103A70001A000C2313430372381C13F0A1F82860BA
:103A800069603C4B220030003D499D68FFF79CFF78
:103A9000002809D07F22037A056093431A000A2385
:103AA000ED17134303724560220030003549FFF7DC
:103AB0008BFF071E5BD02F4D0C352800FFF72CF82D
:103AC0002368029001930395019B029A65689B18F5
:103AD000AB4232D21E78002E11D10398FFF71CF8AA
:103AE000029B83420BD1029BB34223D0214B019A0C
:103AF0009B19925D1B7B9A4201D10136F3E7019B32
:103B0000019A1B7801320192002BF8D1DCE7636047
:103B1000002D1ED00023984205D0164AD218127BE1
:103B2000EA540133F7E700232B5412E0019D10E023
:103B30003C721CE0019B002BF8D10E480C30FEF7C4
:103B4000EBFFA268431CEB189342E0D90123002548
:103B500023747F233C7A9C43002DE9D005480C3028
:103B6000FEF7DAFF05231C433C723D60786005B028
:103B7000F0BDC0468400002047D8010056D801009F
:103B800071D80100B0D8010070B58D6804002A001A
:103B90004868C968FFF718FF002809D07F22037A18
:103BA00093431A00402313430372002303604360CE
:103BB00020606560200070BDF8B5050016000C009F
:103BC0008F18BC4205D021782800FFF784F8013413
:103BD000F7E7AB6A9E19AE62F8BD70B50500080044
:103BE0000C0014F00CFA210002002800FFF7E4FF9B
:103BF00070BDF0B516260700140089B01D0002AB99
:103C0000F618200029000A22002310F0CDF8013E0A
:103C1000303200232000290032700A2200940195DE
:103C200010F0C2F8019B04000D00002BE9D1009BAD
:103C3000092BE6D8162302AA9B18310038009A1BDC
:103C4000FFF7BAFF09B0F0BD10B5040000680368C3
:103C50005B68984763681818606010BD70B5050010
:103C600008000C0014F0CBF9210002002800FFF737
:103C7000EBFF70BD70B5050000242B7AA34206D976
:103C8000280003490134FFF7E9FFE4B2F5E770BD0E
:103C9000AFE40100F0B516260700140089B01D003E
:103CA00002ABF618200029000A22002310F07CF84D
:103CB000013E303200232000290032700A22009495
:103CC000019510F071F8019B04000D00002BE9D163
:103CD000009B092BE6D8162302AA9B183100380056
:103CE0009A1BFFF7B1FF09B0F0BD73B50C00C1B26C
:103CF0007F2803D82000FFF73AF973BD00236A46F6
:103D00003F25137080226B4629405242114380099F
:103D1000597081B2C3B21F290CD8403213436A468E
:103D20009370D51C013D29780029E6D02000FFF7CB
:103D30001EF9F7E76946FC262B40134380118B7070
:103D400083059B0DB600D9B2304206D120226B46C6
:103D500052421143D97001ADE4E70D4069462A4350
:103D6000CA7010229B11524213430B714D1DD9E7AB
:103D7000F7B505000026FFF76FFC6E76019028006E
:103D8000FFF76AFC0024019B01006C76834255D04A
:103D9000A04201D10220FEBD5C284BD12800FFF7D4
:103DA0005BFC0028F6D0284B752839D104276C76A7
:103DB0002800FFF751FC0028ECD0402805D8303807
:103DC000C0B20F2805D90320E5E7202398433738F0
:103DD000F6E700232401013F0443FFB2A4B26B764F
:103DE0009F42E5D1A02380229B01E3189BB2D20021
:103DF000934202D2A405A60DC1E790239B01E318CC
:103E00009BB22000934206D280238005B402800D2D
:103E100020435B02C0182900FFF767FFAFE70233BA
:103E20001A78002ACFD09042F9D159780029CAD007
:103E300000236B762800FFF79AF8A0E72B68187C20
:103E4000431E98418000A6E7C7D801000300002068
:103E50002F2B0FD90130392B0CD95E2B07D97A2B98
:103E600008D900205A229A424041C0B202E0002004
:103E7000402BF6D87047F7B5DBB204000F000525DC
:103E80000193002B1ED000234376FFF7F9FB051E9C
:103E900018D17D212000FFF729FD002812D1200034
:103EA000FFF758F82000FFF7D7FB27280CD022286F
:103EB0000AD02000FFF7D0FB0600FFF7C7FF00285D
:103EC0000ED103252800FEBD2000FFF751FF00287A
:103ED0005AD12000FFF7D4FB061E15D00500F1E7EC
:103EE0000023310020006376FFF741F82000FFF740
:103EF000B3FB0600FFF7AAFF0028F1D123681B7C63
:103F0000002BE6D00425DDE73A212000FFF7EEFC88
:103F10000028D6D06368A26838009E546168FEF716
:103F200055FE011E11D1A1682068FFF7F2F9E16981
:103F300006003800FEF7A5FE0028E3D0802201002D
:103F4000037A524213430372C660019B0022200091
:103F5000013B00F01BF8002816D12000FFF790FB72
:103F6000002811D17D212000FFF7C0FC0028A9D135
:103F70002C212000FFF7BAFC0028A2D02000FFF778
:103F80007FFB002800D18AE705009BE7F7B5050015
:103F90000E001F1CFFF774FB041E00D085E02800F4
:103FA000FFF75AFB662800D1A2E01BD8272803D0D0
:103FB0005B2841D022281ED12800FEF7CBFF280025
:103FC000FFF7D6FE041E70D1A9682868FFF7A1F993
:103FD0007F22337AA96893431A000523134333726F
:103FE00003C662E0742800D174E07B2861D0514997
:103FF0006E2800D178E02800FFF72EFB2B002F0061
:10400000403301937B1BDBB22F2800D87AE039289C
:1040100006D9020020218A43D2B2452A00D07AE094
:10402000019B0137BB4200D181E000236B76F8771A
:104030002800FFF711FBE5E77F22337AFFB29343B5
:104040001A0040231343337234607460002F2BD066
:104050006C762800FFF714FB041E26D15D21280092
:10406000FFF744FC002820D1E9693000FEF709FE83
:10407000011E1CD0002228007B1EFFF787FF0028AE
:1040800026D12800FFF7FCFA002821D15D21280065
:10409000FFF72CFC002808D12C212800FFF726FC74
:1040A0000028E1D1032400E005242000FEBD042403
:1040B000FBE77F22337A310093431A002023134316
:1040C000337200222800346074603B1CFFF7D3FE7B
:1040D0000400EAE77F22337A174993431A00062344
:1040E00013433372012333702800FFF7E9FAEFE737
:1040F0007F22337A114993431A0006231343337204
:104100003470F1E72B2800D18AE702002D3AD2B2B1
:10411000012A00D884E700222800EB18013331007F
:10412000DA772030FEF7ECFD0028BED1BAE73F2356
:10413000F1E7C046E3D80100D8D80100DDD801007E
:10414000036830B54360C3687F2583600023441C47
:104150000374E27F99B0AA43E27705916A460100B1
:1041600013745376009007900A2300226846183192
:10417000FFF70CFF00280AD16B46187E002806D0F6
:10418000E27F0823100018401A4200D0032019B023
:1041900030BD10B50400FEF79EFDA36A1818A0629A
:1041A00010BD000070B504000B4B9D78002D0CD0A5
:1041B000DA7802338A42F8D15C212000FFF7E9FF68
:1041C00029002000FFF7E5FF05E00029F9D12000D4
:1041D0000249FFF702FD70BDC7D80100E8D8010011
:1041E000F0B515001C0006008DB02A002300280041
:1041F00021000FF071FD002805D130005549FFF76F
:10420000ECFC0DB0F0BD00220023280021000FF0CF
:1042100063FD00280DD12A0023002800210010F0A2
:10422000B7FE02000B00280021000FF055FD00280A
:10423000E3D100220023280021000FF053FD0028C5
:1042400006D02D213000FFF7A4FF80231B06E418C1
:10425000230026240A272A0003A8FFF747FA02AB07
:10426000039DE418280039000FF02AFC013C30318E
:1042700028002170390000950FF09CFB009B050081
:10428000092BEFD8262302AA9B181A1B2100300005
:10429000FFF792FC02AB9B7B5BB20093002B25D017
:1042A0000A27049C01930AAD019B013D013B5BB2CF
:1042B000019301330BD0200039000FF001FC3031A5
:1042C0002000297039000FF075FB0400ECE76B4605
:1042D00019782024CB432E2202A81B19C2544A1C51
:1042E000C9430AAB30005918FFF766FC02AB0C2239
:1042F0009B5E002B00D184E765213000FFF749FF6A
:1043000002AB0C255D5FACB2002D05DA2D2130002B
:10431000FFF73FFF6C42A4B2262302AA9B181D00A0
:104320000A27200039000FF0CBFB013D303120007F
:104330002970390000940FF03DFB009B84B2092BDB
:10434000EFD8262302AA9B18290030005A1BFFF73A
:1043500033FC56E7E3D80100F8B50500037A7F2067
:104360000C0018400C280DD87E2213420ED00238C3
:104370000A280BD80FF000FB6A6A5959850A820A8D
:104380006F0A0C00202824D0402808D041497DE045
:1043900008002A686B68FFF723FFA06AF8BD5B215D
:1043A0002000FFF7F6FE2D68002D0DD0210028001B
:1043B000FFF7D2FF2800FEF7E3FB051E04D02C21F7
:1043C0002000FFF7E6FEEFE75D212000FFF7E1FEAA
:1043D000E3E77B212000FFF7DCFE2D68002D22D0D3
:1043E00022212000EE68FFF7D4FE3178002904D0A6
:1043F00020000136FFF7D6FEF7E722212000FFF765
:10440000C8FE3A212000FFF7C4FE21002800FFF774
:10441000A3FF2800FEF7B4FB051E04D02C212000CA
:10442000FFF7B7FEDAE77D21CFE7222120002F68D2
:104430006E68FFF7AEFEBE19BE4205D03978200087
:10444000FFF7B0FE0137F7E72221BEE7200006CDD7
:10445000FFF7B2FBA1E72E686F68002F08DA2D2165
:104460002000FFF796FE32003B00002756429F4196
:1044700032003B002000FFF7BCFB8EE72A686B6828
:10448000F8E72B780449002B00D104492000FFF7FE
:10449000A4FB82E7E3D80100D8D80100DDD80100F1
:1044A000F0B50600B5B00800002E06D07F22337AA2
:1044B0001340042B47D0052B45D0002301900A93CD
:1044C00001AA0BAB13CA13C313CA13C313CA13C372
:1044D00012680BA81A6015AA32C832C232C832C29A
:1044E00032C832C21B681FA913600B0015A90D004A
:1044F00013CD13C313CD13C313CD13C3126829AD4A
:104500001A602A001FA991C991C291C991C291C98B
:1045100091C21B681FA813600023AB62FEF7CCFB9F
:1045200015A8FEF7C9FB002E14D029003000FFF7B4
:1045300013FF2800FEF7C0FB0BA8FEF7BDFB01A888
:10454000FEF7BAFB04E031680029B6D00EF05FFC3C
:1045500035B0F0BD28000249FFF73FFBE9E7C04650
:10456000E3D80100F0B5574D87B029000400FEF7ED
:10457000FAFE061E00D187E0200029001830FFF760
:10458000AFF9011E00D17DE07F23007A18400C288E
:1045900009D80FF0F1F97708080808080708680833
:1045A00068086E000E78484D20002E70474E31008E
:1045B000FEF7D9FE002800D169E020003100183054
:1045C000FFF78EF9FEF7D7FE414E686031002000FC
:1045D000FEF7C9FE00285DD0200031001830FFF73B
:1045E0007FF90023984202D0FEF7F6FE0300394E11
:1045F00020003100AB60FEF7B6FE00282AD0230071
:104600001833180031000193FFF76AF907003249A7
:1046100003A80EF089FB380003A9FFF741FF059FAF
:1046200003A80EF039FB002F14D031000198FFF7DA
:1046300057F90600284903A80EF076FB300003A9BD
:10464000FFF72EFF280003990C3013F0D0FC03A8CD
:104650000EF022FB20001B49FEF785FE00281CD12E
:10466000012007B0F0BD41C90643701E8641F6B275
:1046700099E700220868496800230FF02DFB4642A5
:10468000464190E700268EE7144B1E788BE7134BCC
:10469000586899E7114B9B68A9E720000B49FEF782
:1046A00062FE0028DCD020000949FEF75CFE0028ED
:1046B000D6D020000749FEF756FE01235840C0B26D
:1046C000CFE7C04647D801008400002056D801003B
:1046D00071D80100B0D80100D7D8010044000020F3
:1046E00010B50400006803681B68984763681818D1
:1046F000606010BDF0B515001C0006008DB02A00EA
:104700002300280021000FF0E7FA002805D130002F
:104710005549FFF7A3FA0DB0F0BD00220023280091
:1047200021000FF0D9FA00280DD12A00230028001B
:10473000210010F02DFC02000B00280021000FF0DA
:10474000CBFA0028E3D100220023280021000FF03B
:10475000C9FA002806D02D213000FFF7C1FF8023C1
:104760001B06E418230026240A272A0003A8FEF7C4
:10477000BDFF02AB039DE418280039000FF0A0F93B
:10478000013C303128002170390000950FF012F9FA
:10479000009B0500092BEFD8262302AA9B181A1BA1
:1047A00021003000FFF750FA02AB9B7B5BB2009315
:1047B000002B25D00A27049C01930AAD019B013DE3
:1047C000013B5BB2019301330BD0200039000FF0A5
:1047D00077F930312000297039000FF0EBF8040030
:1047E000ECE76B4619782024CB432E2202A81B1934
:1047F000C2544A1CC9430AAB30005918FFF724FAC7
:1048000002AB0C229B5E002B00D184E765213000B7
:10481000FFF766FF02AB0C255D5FACB2002D05DA39
:104820002D213000FFF75CFF6C42A4B2262302AAC0
:104830009B181D000A27200039000FF041F9013DA7
:10484000303120002970390000940FF0B3F8009B3C
:1048500084B2092BEFD8262302AA9B182900300026
:104860005A1BFFF7F1F956E7E3D8010070B50400D1
:104870000B4B9D78002D0CD0DA7802338A42F8D1A8
:104880005C212000FFF72CFF29002000FFF728FF04
:1048900005E00029F9D120000249FFF7DFF970BDDA
:1048A000C7D80100E8D80100F8B50300027A7F20DC
:1048B0000C0010400C280DD87E210A420ED0023880
:1048C0000A280BD80FF058F8545441416F0A6C0A6B
:1048D000590A0C00202833D0402808D035492BE055
:1048E00020001A685B68FFF705FF60682CE01D6810
:1048F0003149002D20D020003049FFF7AFF9237A4D
:10490000013323722000FFF7B5F921002800FFF7DB
:10491000CBFF2800FEF734F92949051E00D12949AB
:104920002000FFF79BF9002DECD1237A2000013BFA
:104930002372FFF79FF924492000FFF78FF9D4E78E
:104940001900200000F040FBF8BD222160CB2000C0
:10495000FFF7C6FEAE19AE4205D029782000FFF75A
:1049600085FF0135F7E722212000FFF7B9FEBCE7FC
:10497000200006CBFFF768F9B7E71E685F68002FD5
:1049800008DA2D212000FFF7ABFE32003B000027A4
:1049900056429F4132003B002000FFF77BF9A4E71D
:1049A0001A685B68F8E71B780849002BC4D10849EE
:1049B000C2E7C046E3D80100F7D80100F3D80100F0
:1049C000EFD80100F0D80100B7E80100D8D8010005
:1049D000DDD801001FB5002201AB01911A725A60A7
:1049E000904204D01900FFF75FFF05B000BD18002A
:1049F0000249FFF733F90298F7E7C046E3D8010010
:104A000080B5284F2848BD4402F086FB274801F0B6
:104A10000DFA0FA8FEF7BAFA01A8FEF7F3FA244A36
:104A200001990FA801F076FA00281FD1214904A8A6
:104A30000EF07AF904A91CA80EF0D7F901A91CA858
:104A40000EF071FA1C490EF07BFA01001B480DF0C4
:104A500099F91CA80EF020F904A80EF01DF901A880
:104A60000EF01AF98E239B009D4480BD1CA8FEF712
:104A700061FC1CA8FEF7DAFF8022002392000FA938
:104A800004A8FEF71FFD04A922A8FFF7A3FF04A8AE
:104A9000FEF755FD13A805F0C1F904A8FEF75AFD6D
:104AA000DDE7C046C8FDFFFFFAD80100C9D6010006
:104AB0000106000014D9010034D901000C120020B5
:104AC00010B52B4CA54416A8FEF734FC6846FEF73B
:104AD00099FA09A8FEF75AFA0022009909A801F0EC
:104AE00019FA00281FD1234903A80EF01DF96946C1
:104AF00003A80EF018FA20490EF022FA010006A8C9
:104B00000EF073F906A802F0EFFA06A80EF0C4F84A
:104B100003A80EF0C1F83E221849194812F017FBFD
:104B2000FFF76EFF18E009A916A8FFF709FBC4B24A
:104B30000DA805F073F9002C15D0124802F074FA94
:104B4000114BA400195911480DF012F90024104816
:104B500002F0E2FA002CE3D168460EF09DF88823BB
:104B60009B009D4410BD16A8FFF7FCFC0400EEE777
:104B7000E0FDFFFF4AD9010067D901004400002091
:104B80008400002086D9010040DB01000C120020C7
:104B9000A1D9010010B50B4802F046FAFEF702FA5F
:104BA000094C010020000DF0F7F8084802F03CFA2B
:104BB00001F0AEFF010020000DF0EEF8FFF780FFDE
:104BC00010BDC046AED901000C120020C6D90100AC
:104BD000F0B57D4C0700A54419A80E001400FEF79F
:104BE000D5F926A8FEF7A6FB08A8002E00D1ACE058
:104BF000FEF708FA0022089919A801F08BF900289D
:104C000021D019A926A8FFF79BFAC5B2002D1AD00A
:104C10006E490BA80EF088F80BA90EA80EF0E5F867
:104C20006B4BAD0059590EA80EF09EF969490EF074
:104C300087F9010068480DF0A5F80EA80EF02CF8D1
:104C40000BA80EF029F826AD002E02D02800FEF7A2
:104C5000EDFE39000BA80EF0C8F80BA90FA80E95B1
:104C60000EF0C3F80BA80EF017F80E9E0F9B300045
:104C70000693119B0F990793119A33001830FEF792
:104C800041FE051E09D07F22037A93431A00202398
:104C9000134303720023036043600FA80DF0FCFF71
:104CA000320028004D49A768FEF78EFE002809D083
:104CB0007F22037A076093431A000A23FF171343E6
:104CC00003724760464B0EA902A8109611930F95E8
:104CD000FEF75AFF434B0EA904A810960F951193A7
:104CE0000026FEF751FFA368B34231DD2368029826
:104CF0000193B700002810D00399FDF7C2FF051EED
:104D00000BD0019BD85911F05BFF7F222B7A2860D2
:104D100069609343733A13432B7263680498019359
:104D2000002810D00599FDF7ACFF051E0BD0019BA4
:104D3000D85911F045FF7F222B7A28606960934390
:104D4000733A13432B720136CDE7FEF785F951E72D
:104D5000254A089919A801F0DDF800281FD1234938
:104D60000BA80DF0E1FF0BA90EA80EF03EF808A964
:104D70000EA80EF0D8F817490EF0E2F80100164818
:104D80000DF000F80EA80DF087FF0BA80DF084FFC2
:104D900008A80DF081FF99239B009D44F0BD80225F
:104DA0000023920019A90EA8FEF78CFB0EA92CA8CF
:104DB000FFF710FE0EA8FEF7C2FB1DA805F02EF8A7
:104DC0000EA8FEF7C7FBE3E79CFDFFFF86D90100B5
:104DD00040DB010034D901000C120020E1D90100B0
:104DE000E8D90100F7D901000106000002DA01004C
:104DF000F0B500276A4C8760A544040038000D0018
:104E000016000EF009FB206038000EF005FB206054
:104E100018A8FEF78FFA0BA8FEF7B8F802A8BE4252
:104E200037D0FEF7EFF8002202990BA801F072F8D4
:104E3000002831D15B4905A80DF076FF02A905A82D
:104E40000EF071F858490EF07BF8010008A80DF03B
:104E5000CCFF08A802F048F908A80DF01DFF05A82E
:104E60000DF01AFF2000FEF721F9290008A80DF027
:104E7000BCFF08A822003100FFF7AAFE08A80DF029
:104E80000BFF02A80DF008FF20008B239B009D4420
:104E9000F0BDFEF7E1F8C6E70BA918A8FFF750F937
:104EA000C6B20FA804F0BAFF002E0CD03F4802F0A3
:104EB000BBF83F4BB60099593E480CF059FF200013
:104EC000FEF7F4F8DDE7592302AA9B18DB7F9B0667
:104ED0005DD52B68AA6819001EA808930992FDF7F2
:104EE00096FE002853D034491EA8FEF730FA061E5D
:104EF00003D0037A5B06DB171E4030491EA8FEF77D
:104F000026FA051E0AD0037A5B0607D5002700683B
:104F1000002832D00137FDF733FEF9E700252F00D6
:104F2000A560B8000EF078FA254B2060A068984282
:104F30002AD880000EF070FA00276060A368BB4298
:104F40009FDDBA0094462368390063443000019322
:104F5000FDF77DFEFEF70FFA6268019B944618602C
:104F6000BB006344390028000193FDF770FEFEF793
:104F700002FA019B01371860E0E7114BA7609F42DE
:104F8000CFD901204042CDE701204042D2E70D4871
:104F900002F04AF8290007480CF0F4FE71E7C04619
:104FA000D4FDFFFF4AD9010067D9010086D901006D
:104FB00040DB01000C120020E8D90100F7D9010004
:104FC000FEFFFF1F1ADA0100F8B50D6804001F4943
:104FD000002D35D022271E49FEF740FE237A0133EB
:104FE00023722000FEF746FE39002000EE68FFF72E
:104FF00077FB3178002904D020000136FFF736FC1A
:10500000F7E739002000FFF76BFB20001149FEF79E
:1050100025FE21002800FFF747FC2800FDF7B0FD22
:105020000D49051E00D10D492000FEF717FE002D89
:10503000D7D1237A2000013B2372FEF71BFE0849DB
:105040002000FEF70BFE6068F8BDC0463DDA0100A7
:1050500039DA010034E60100EFD80100F0D8010090
:105060003EDA010007B5002103480B000A00009159
:105070000CF042FE07BDC0465C04002010B50400E1
:1050800001210EF0ADFB012120000EF0D9FB10BD77
:1050900010B500210EF0D4FB10BD000010B50400C7
:1050A000FFF7ECFF054B013BFDD12000FFF7F0FFC0
:1050B000C8239B00013BFDD110BDC04600350C004C
:1050C000F8B5302604003027244D76422000FFF743
:1050D000D5FF30006843224B0321C0180EF06AFC54
:1050E0000138FDD12000FFF7D3FF002D06D0380096
:1050F000032168430EF05EFC0138FDD1194BED1819
:10510000194B9D42E2D12000FFF7B8FF174B013B3E
:10511000FDD130260025302776422000FFF7AEFF74
:10512000300068430E4B0321C0180EF043FC0138D9
:10513000FDD12000FFF7ACFF002D06D03800032181
:1051400068430EF037FC0138FDD1094BED18094BCF
:105150009D42E2D12000FFF79BFFF8BD68420000AE
:1051600000A60E0048F4FFFF18FCFFFF00E2040059
:10517000B80B00005046000007B513200EF0B8FA37
:1051800013200EF0B5FA0FF0C7FE0190019811F050
:1051900017FD054A054B10F06BFE0022044B10F082
:1051A00061FA11F055FD0EBDA4703D0AD7A30A4067
:1051B00000F88F4010B50820FFF760FF01210B2099
:1051C0000EF00EFB002113200EF00AFB01210B2034
:1051D0000EF036FB0EF05AF8034B1860FFF7CCFFC9
:1051E000024B186010BDC046AC040020B004002083
:1051F00073B50EF04BF8264C2368C833984233D36E
:105200000EF044F82060FFF7B7FF8021019001986D
:10521000C9050EF0B5FD1F4E051E1F4C29D00EF01E
:1052200035F8FA22336892009B181C4D98421CD91D
:105230001B4B1B78002B07D000210B200EF000FB2E
:1052400001232B70002323702B78002B02D10C201C
:10525000FFF714FF23780820002B15D00F4B1B7885
:10526000002B11D1FFF70AFF73BD012322785340B1
:10527000E9E70C20FFF70CFF0EF008F80122084BBD
:1052800030601A702570E5E7FFF702FFECE7C046D3
:10529000A8040020AC040020A7040020A6040020DD
:1052A000B404002030B50E4C89B0200008F01AF983
:1052B00020006C4676220B4908F048F90A4905A8F7
:1052C0000DF032FD094D002205A92000FFF790FDE9
:1052D0000ECC0EC505A80DF0DFFC09B030BDC046F0
:1052E000C00400207C0D0020E5CB0100E00400207C
:1052F00010B50821014808F057FA10BDC00400207D
:1053000010B5FFF7F5FF0021041C0EF01FFD00286B
:105310000DD108498B68002B07DD074B1B78002B4C
:1053200003D1201CFDF732FF041C201C10BD034CD0
:10533000FBE7C046E0040020840000200000C07F9E
:10534000074B10B59B68002B06DD064B1B78002B26
:1053500002D1FFF7D5FF10BDFFF7CAFFFBE7C0463C
:10536000E00400208400002010B50DF08FFF032220
:105370000C4B4343D3410C4A934212D8FFF7B8FF7A
:10538000011C0A4801F0C8FD094B9B68002B05DD94
:10539000FFF7B6FF011C074801F0BEFD064801F00B
:1053A000BBFE10BDD578E9263789410094DB0100AA
:1053B000E0040020A6DB0100D7D80100F0B505000D
:1053C0002F0087B0019103A82D490C370DF0ACFCDC
:1053D000390003A80DF0F0FD060003A80DF05CFCF9
:1053E000284C002E17D0FFF783FF2200696AFDF7D3
:1053F0006BFE254903A80DF097FC2200002103A8AD
:10540000FFF7E6FB03A80DF047FC2000FDF728FF9F
:10541000002007B0F0BD1D4903A80DF085FC390040
:1054200003A80DF0C9FD009003A80DF035FC009B0A
:10543000002B03D02200696B686AD8E7144903A8DF
:105440000DF072FC390003A80DF0B6FD050003A8AD
:105450000DF022FC002D03D02000FDF727FEC8E749
:10546000019801F021FE0B4801F01EFE0A4801F0F0
:1054700053FE2000FDF7F4FE084801F04DFEC7E79B
:10548000BFDB0100E0040020E5CB0100C2DB01002E
:10549000C6DB0100CCDB010085DF0100E9E701008C
:1054A00013B50024074823002200210000940CF0CB
:1054B00023FC7621044807F0FFFF044B1C605C606E
:1054C0009C6013BDB8040020C0040020E00400204C
:1054D000382342689A43303B134343607047382374
:1054E00042689A43283B134343607047072342684E
:1054F0009A43033B13434360704700004268024BEA
:10550000134043607047C046FFFDFFFF072342681A
:105510009A43053B134343607047802342689B00D6
:105520001343436070470175704770B505000C0068
:105530000A2904D140680D2103681B6898476868F0
:10554000210003681B68984770BD00207047002049
:1055500070470120704700200021704770B50C1E75
:1055600009D04568080012F04AFD2B6802002100AE
:1055700028005B68984770BD10B5040003680C3BB9
:105580001868043020188847200010BD10B50400AA
:1055900003681B689847200010BD4B6810B5036076
:1055A0000C3B1B688C68C4500B68C96803600C3BDB
:1055B0001B68C150426010BD20230373064B03617A
:1055C00002230375002383610377044B416003606A
:1055D000034B83607047C0460A10000058E4010086
:1055E0007CE4010070B5224D2B68002B0BD1214CBF
:1055F0002149200006F0F5FD0A212000FFF7C6FF33
:10560000002011F00FFCDB7C002BF9D0194C012B92
:1056100007D12000194906F0E4FD0A212000FFF718
:10562000B5FF2000164906F0DCFD20001549FFF704
:10563000A3FF1549FFF7A0FF2B681448D97C05F09C
:1056400031FE2000124906F0CCFD2B682000D97CE9
:1056500006F027FF0A212000FFF798FF20000D49E0
:1056600006F0BFFD2B682000997D06F01AFFC3E706
:105670002805002008050020C3DF0100D5DF010058
:1056800006E00100DF5400001B5500000C12002052
:1056900021E0010015E00100F7B5454C0A2120008A
:1056A000FFF774FF2000434906F09BFD0025AB0483
:1056B000414A424F0093ABB20193AB049A183B6846
:1056C000934200D85A1E3E4EA904306806F0F6F9FF
:1056D00000280DD13B49200006F083FD3A49200007
:1056E00006F07FFD0A212000FFF750FFFFF77AFF49
:1056F0002E21200006F050FD3F22ABB21340934212
:1057000003D10A212000FFF741FF8022D2029446F4
:10571000009B3A68634401359A42C8D80A212000A8
:10572000FFF734FF294D00212A00306806F069FA9E
:10573000002805D12349200006F053FD2449CEE777
:1057400020002449FFF718FF2349FFF715FF3022F7
:10575000036822490C3B1B68C3181A71FFF70CFF42
:1057600020001F4906F03DFD0422236829780C3BE8
:105770001B682000E3181A6106F093FE0A2120003E
:10578000FFF704FF20001749FFF7F6FE1649FFF761
:10579000F3FE2022036815490C3B1B68C3181A71DD
:1057A000FFF7EAFE2000124906F01BFDF7BDC046D8
:1057B0000805002025E00100FFFF0300040500208C
:1057C0002805002048E0010050E001002C050020E1
:1057D0005DE00100DF5400001B550000ED540000A7
:1057E00067E00100D1540000FD5400000D55000099
:1057F00078E001008020104B10B519680F4B104A5B
:105800001C6890B00F4BC004844206D9684603F070
:1058100035FB002805D1FFF7E5FE05A805F0BEFA27
:10582000F7E7094C0949200006F0DBFC0A212000BB
:10583000FFF7ACFE10B010BD2805002004050020C5
:105840002C0500200C1200200805002084E0010037
:1058500010B508490848FFF7AFFE084B0849002279
:105860005960A82189051A601A81DA6019615A61A4
:1058700010BDC0460C12002008050020EC040020DA
:1058800000093D0010B50DF007FD0400074808F0C1
:105890008EF8002802DB0DF0FFFC04000DF0FCFC8C
:1058A000034B001B9842F1D910BDC0460C120020DA
:1058B0000F270000F0B5764C7649200085B006F041
:1058C00090FC0A212000FFF761FE734D280008F0CC
:1058D00051F8002802D10DF019FDF6E7280008F074
:1058E00066F8C0B213F09EFAC6B2FFF7CBFF3100E4
:1058F000200006F051FC0A212000FFF747FE592E38
:1059000005D02000654906F06CFC05B0F0BD644A86
:1059100001AB1268634E1A7001225A7030000023E6
:105920000199614A05F0B2FF604B1E60F37C002BC9
:105930000DD05F49200006F054FC5E49200006F0BF
:1059400050FC0A212000FFF721FEFFF74BFE30003C
:1059500006F077F8584E3060002805D154492000F1
:1059600006F03FFC5549E9E72000554906F039FCAF
:10597000306811F0FFF8534A534B10F079FA0200E7
:105980000B00200006F054FC2000504906F029FCD2
:1059900020004F4906F025FC306811F0EBF800229A
:1059A0004C4B10F065FA02000B00200006F040FCA2
:1059B0002000494906F015FC4849200006F011FC7A
:1059C000802233684649D204934205D88022454953
:1059D000D203934200D84449200006F002FC200084
:1059E000424906F0FEFB0A212000FFF7CFFD280008
:1059F00007F0C0FF002802D10DF088FCF7E728006F
:105A000007F0D5FF0500FF27FFF73CFF28003840CF
:105A100013F008FA0500C6B23100200006F0BCFB06
:105A20000A212000FFF7B2FD29003148394012F069
:105A3000C6FA304900281FD02F4B1B7C002B02D008
:105A40002E4804F0EBF9902100222D4BC9005A504A
:105A50002C495A509122D2009858002801D006F0C3
:105A6000EDF83300453B012B0ED8FFF715FE462E0F
:105A700001D1FFF7BFFE2449200006F0B2FB0A2146
:105A80002000FFF783FD40E7512EF4D1F1E7C04637
:105A900008050020AFE001000C12002067E20100C1
:105AA000C4000020EC040020808D5B00280500204D
:105AB00048E0010088E20100040500209AE20100AC
:105AC000B3E2010095D626E80B2EA13EC0E201000C
:105AD000B4E201000000A03ED6E20100EFE20100C6
:105AE00006E301000DE3010014E301001BE30100E4
:105AF000BCE30100C0E30100E0070020F007002044
:105B00001408002084040000E1E3010070B51400D3
:105B100001220B4B1A700B4B1B78002B02D001207B
:105B2000404270BD0A0001009120074DC000285876
:105B3000630A06F03CF80028F1D02000F1E7C046E7
:105B40002D0700202C0700201408002070B5140039
:105B500001220B4B1A700B4B1B78002B02D001203B
:105B6000404270BD0A0001009120074DC000285836
:105B7000630A06F070F80028F1D02000F1E7C04673
:105B80002D0700202C070020140800200122074BBD
:105B900010B51A70064B1B78002B05D19123054ACE
:105BA000DB00D05805F00DFE10BDC0462D070020CB
:105BB0002C0700201408002013B50D4B0D4C00934A
:105BC000200000210C4B0D4A08F0B0F90C4B2000CE
:105BD000009300210B4B0C4A08F0BEF90022200074
:105BE000110008F0B3F9200008F0C0F913BDC04659
:105BF00084E401003007002022E7010080E4010076
:105C00008D5B00004D5B00000D5B000010B5FFF7E1
:105C1000BDFF0021034B01220348197008F096F9DB
:105C200010BDC0462C070020300700209023154AE5
:105C3000DB00D35810B5002B15D0DC691979013C75
:105C400080234C439B00220000210F4808F077F985
:105C5000FFF7DCFF0D4801F007FA0A22E10A0C48C1
:105C60000CF013F910BD0B4BD358002B07D00121BA
:105C7000094A9A5C91408622D2009C58E0E71900BC
:105C80001C00DDE7140800203007002088E4010034
:105C90000C120020840400004504000010B5FFF73A
:105CA00075FF0122034B04481A700022110008F00E
:105CB0004DF910BD2C070020300700200022014BB9
:105CC0001A7070472D0700200122014B1A7070478F
:105CD0009407002010B50AF02BFF002804D00AF02A
:105CE0002FFF01235840C0B210BD000010B502487C
:105CF00008F008F910BDC0463007002070470000CA
:105D000037B505000C006846144901F059FD6A4694
:105D10006B4690781278002114325B787F2A08D87D
:105D20000C2B06D81F2804D85B01034352021343EF
:105D300099B26B466A46DB78298000201179527946
:105D4000172B09D83B2907D83B2A05D8DB02490184
:105D50000B435210134398B2208037BD3C040020FF
:105D60000A00902100B5C900030040588FB00028F8
:105D700009D0694600230B808B700100684604F04F
:105D8000A7F80FB000BD074959580029F9D03123B1
:105D90006B4418706B4658860300684602F02EFD6F
:105DA000EFE7C0468404000030B585B004000D0064
:105DB00002A80A4901F004FD6B465B7AFA220193BE
:105DC0006B461B7AD2009B18009320002B00044ADC
:105DD000044912F0C7F8200005B030BD3C04002093
:105DE00080E40100B2E4010070B588B006AC0500A3
:105DF0000E0020000B4901F0E3FCFA2122786378C1
:105E0000C900049652186179280003912179029102
:105E1000E1780191A1780091034912F0A3F82800DC
:105E200008B070BD3C040020C3E4010070B51C4EF6
:105E3000010005008EB03000FFF792FF041E03D072
:105E4000012420000EB070BD9023DB00F158002922
:105E500013D06B4618809870124B2A00C9186846F8
:105E6000012304F0E9F80028EAD10F4801F0DCF83A
:105E700029000E480BF090FFE3E70D4BF158002985
:105E8000F3D031236B4418706B4658868923DB00AE
:105E9000C9182A000123684602F07EFEE3E7C046E7
:105EA0001408002044040000E4E401000C12002067
:105EB0008404000010B5024806F094F810BDC046F6
:105EC000015D000070B50F4904000F2800D90E498C
:105ED0000E4D28000BF03BFF1022210028000BF094
:105EE000ACFF0B4E300001F0BFF82100280005F098
:105EF000D9F9300001F0B8F82800210005F0B0FA17
:105F000070BDC046FEE4010002E501000C12002055
:105F100007E70100F7B507000500103738000E004D
:105F200003F0E4FF2B7C0193002B18D131001B48B8
:105F3000FFF716FF041E07D0194801F075F830006E
:105F400001F0EAF8002408E02B7C002B07D115486B
:105F500001F06AF8300001F0DFF82000FEBD3800E3
:105F600003F00AFF041E05D02B7C002B02D06B7CB3
:105F7000DB07F2D50C4801F057F82B7C0120002BF1
:105F800001D06B7C1840C0B2FFF79CFF07480BF0B4
:105F9000E7FE380003F042FFD4E7C04614080020B3
:105FA00005E5010018E5010035E501000C120020AF
:105FB00010B50400FFF7AEFF002803D00022024B0B
:105FC0001C601A7110BDC04698070020002370B5F0
:105FD000912586B02B4E03AA107053702A4A3000C8
:105FE00003990593049205F051FC284C284BED00D1
:105FF000E35C6651002B13D1009301331A0031008A
:10600000200005F0BFF8031E07D1009001222000F8
:10601000615905F0B7F8002802D0012006B070BD24
:106020009125ED006359DB7C002B14D0194801F059
:106030003BF8194800F0F8FF6359D87CFFF742FF9E
:10604000164800F0F1FF63591022997D14480BF0B7
:10605000F8FE0020E2E7134801F026F89023DB0069
:10606000E358002B07D0DB790F48002B00D10F48F5
:1060700001F01AF8EDE70E4BE358002BF7D00D4A6C
:106080009B5CF1E7A00C0020808D5B0014080020D1
:106090009F04000045E5010014E6010024E601002C
:1060A0000C12002037E6010083E6010058E60100EB
:1060B0008404000044040000F0B5040085B006200C
:1060C0000D000DF0A5F91F272300060009486112F5
:1060D0003B4009182F406805E2057F00800EED0A5D
:1060E0000190120F30000297009501F007FC30007C
:1060F00005B0F0BDBC07000073B56B4610319A1DAA
:106100000400080001A903F010FF6B46D9889888A5
:10611000FFF7D2FF0100200001F008FC104800F05A
:10612000A3FF6B460F4D99880A2228000BF085FECD
:106130000D4E300000F098FF6B460A22D9882800E7
:106140000BF07BFE300000F08FFF200001F0AAFC76
:106150000A22010028000BF098FE200076BDC04600
:106160009FE601000C120020B0E401009022002301
:10617000D20010B58350054A83509123DB00C058EC
:10618000002801D005F05AFD10BDC046840400006F
:1061900010B50548037C002B02D0103003F03EFE02
:1061A0000248FFF7E3FF10BDE007002014080020BD
:1061B000054B10B51868FFF709FF041E02D103480C
:1061C000FFF7D4FF200010BDC400002014080020F9
:1061D00010B504000068002801D1002010BD03683C
:1061E00022795B68611D984723799842F5D1002395
:1061F00001202371F2E770B5037905009B180E00AA
:106200001400402B10D9FFF7E3FF002801D1002034
:1062100070BD3F2C08D928682200036831005B68F4
:1062200098478442F3D1F3E72B79681DC018220008
:10623000310010F08CFF2B7920001B192B71E7E740
:1062400037B505000E480C000BF081FD0D4800F03D
:10625000EBFE2B7C002B11D0200011F0D0FE0A4D5C
:10626000020021002800FFF7C6FF2C2201AB9A7024
:106270006B4628002B3A991DFFF7BDFF37BDC0467E
:106280000C120020DED101009807002000B5037C2D
:1062900089B0002B15D02C2202ABDA75081C10F047
:1062A0008FFC0B00002102001F20019102310091A0
:1062B000684405F089FD08AB01001A1A0248FFF78F
:1062C0009AFF09B000BDC0469807002007B501AB92
:1062D00099706B460122991DFFF78DFF0EBD0000DE
:1062E00070B50400037C0020834228D0164D28009E
:1062F0000BF036FD154E0A213000FFF7E7FF3000A6
:10630000FFF766FF002808D02000103003F034FDAE
:10631000002802D0237C002B0ED10D4800F084FE13
:10632000227C0123002A0BD1D8B2FFF7CBFD280035
:106330000BF016FD002002E0637CDB07EDD470BD9E
:10634000607C0340F0E7C0460C1200209807002054
:10635000B8E60100F0B52A4D06002900294893B09F
:10636000FFF7FEFC284C00281ED00922290020003F
:10637000FFF7D0FD254901A801F022FA210009A864
:10638000FFF7BAFE09AA01A9684601F0A3FB009F26
:106390001F4800F069FE0A2239001E480BF075FD07
:1063A0001D4B9B68BB4228D81C4901A8FFF71CFD68
:1063B0001B4909A8FFF7F8FC0022174B09A91A731B
:1063C000280011F0EFFD01A9280011F0EBFD09A84C
:1063D000FFF72CFD237C002B03D02000103003F0AE
:1063E0001DFD29000F4A2000FFF7E2FD20003100CB
:1063F000FFF726FF2000FFF773FF13B0F0BDC04684
:106400009000002014080020E00700203C04002039
:10641000C9E601000C12002084000020E9E601001A
:10642000EDE60100010A0000902310B50024134896
:10643000DB00C450124B134AC4500433C450124BF7
:106440001249C4500433C250A822114B9205C452C1
:106450000433C4500F4BC2500433C4500E4A0DF0E5
:1064600079FAFA220D4B92009A600D4A5C601A602C
:106470001C829C740B4B1C601C7110BD1408002006
:106480008404000000093D008C040000FD5C000055
:10649000940400009C04000000000020E00700209D
:1064A00048DA01009807002013B5002108480B00C6
:1064B0000A0000910BF020FC064C074920000CF06C
:1064C00033FC2000054A06490DF044FA13BDC046CE
:1064D000B80C0020C00C0020D7D80100000000201C
:1064E000992C01007FB5FEF765FEFFF765FB0C20D8
:1064F000FEF7C4FDFA2155480CF097F8FCF7AEF909
:10650000E121534D4902280007F0A2FA280007F0C4
:10651000BBFA002819D10CF0B9FE4E4B98421AD99B
:106520004D4800F0A1FDFBF705FE00281ED1FEF747
:106530005FFE0D20FEF7C4FD0C20FEF7C1FDFCF749
:106540002DF90A200CF0E8FEEDE7280007F012FA1A
:106550000028E0D0E4E7FEF74BFE0D20FEF79EFD9D
:10656000FCF71CF90A200CF0D7FECFE7FBF746FE3C
:106570003A4C3B4920000CF0A1FCFA26394800F0C7
:1065800093FDB600FFF714FE00280AD1FEF730FE97
:106590000D20FEF795FDFCF701F930000CF0BCFE74
:1065A000F0E7FFF787FCFEF7F5FAFEF729FAFFF7A9
:1065B0003DFB2D4800F078FDFEF774FE2B492000CE
:1065C0000CF07CFC2A4800F06FFD00F0B1F929497D
:1065D00020000CF073FC284800F066FDFCF742F93F
:1065E000264920000CF06AFC254920000CF066FCCE
:1065F000244901A80CF098FB200001A90CF0EAFC4A
:10660000060001A80CF048FB002E0DD0A368002264
:106610002100013B01A80CF03DFD200001A90CF078
:10662000EEFB01A80CF038FB174C200000F03CFDFD
:10663000164800F039FD200000F036FD280007F074
:10664000C7F90C20FEF724FD7FBDC0467C0D00205D
:106650000C120020B70B0000F6E60100C00C002071
:106660000BE7010016E701002AE7010047E70100F8
:1066700056E7010075E701008EE70100AEE7010073
:10668000CCE70100DED10100DBE7010027E80100D3
:10669000F7B5060017000C1CFFF71CFB00282BD0D9
:1066A000184D280007F09BF9002824D0002F02D0B5
:1066B000154800F0D9FC310028000BF048FB1348C6
:1066C00000F0D2FC201C10F07BFA0523020006002B
:1066D000009328000B000F000BF096FC0C4800F014
:1066E000C3FC02233200009328003B000BF08CFC1B
:1066F000084800F0B9FCF7BD0748211CFFF7C6FDAC
:10670000F9E7C0460C12002074E8010079E80100A6
:106710007BE80100DED10100E007002010B5002277
:10672000FFF7B6FF10BD000070B506000C00FFF7C4
:10673000D1FA002811D00B4D280007F050F900289D
:106740000AD0310028000BF002FB210028000BF0DA
:10675000FEFA054800F088FC70BD21000348FFF7F1
:106760006FFDF9E70C120020DED10100E0070020E8
:10677000F0B585B0FEF73CFD584B1B78002B0ED0D2
:10678000FFF78CFAFFF704FD0D20FEF781FC0C20CB
:10679000FEF77EFC0820FEF77BFC05B0F0BDFFF79E
:1067A00099FA00283AD0FBF7F9FF002802D10C3003
:1067B000FEF764FC0D20FEF761FC494B1B78002BB3
:1067C000EBD00CF063FD0EF0A7FB464E041C3068C6
:1067D0000EF0A2FB444D4549071C68680EF03EF8D8
:1067E000011C381C0DF0D4FC011C201C0DF0B4FA67
:1067F0000028D2D10CF04AFD30603D48037C002BCC
:1068000012D13C4800F050FC3B4B1868FFF7A2FD4A
:10681000FEF7F6F80D20FEF753FCBEE7374B187075
:106820000D20FEF735FCCCE7FFF75AFD0028E8D035
:106830002B78002B06D0FFF74DFA002802D0304805
:1068400000F0F2FB01A8FBF7B5FC01992D48FFF71A
:106850006BFFFEF775FD011C2B48FFF75FFF00F093
:10686000BBF8002000F014F9011C2848FFF756FF80
:10687000012000F00DF9011C2548FFF74FFF022011
:1068800000F006F9011C2348FFF748FFFCF742F827
:10689000011C2148FFF742FFFBF748FC011C1F4881
:1068A000FFF73CFF1E4800F0DFFB00F055FC0A221A
:1068B00001001C480BF0C1FA1B4800F0D5FB00F0AA
:1068C0004BFC0EF0E3FA011C1848FFF727FF0C20E1
:1068D000FEF7E4FB01A80CF0DFF95EE7A604002058
:1068E0004A040020CC0C00208400002000007A44E0
:1068F000E00700207EE80100C00C002049040020D1
:106900009AE80100B9E80100B1DB0100C3E8010029
:10691000CBE80100D3E80100DBE80100E8E8010072
:10692000F0E801000C120020DED10100F5E80100C2
:10693000F0B5254C91B0200006F0EEFC20000C21B3
:1069400006F06EFD200006F003FC00241E4EE1B2AE
:10695000300006F09FFD1D4AA300D0501C4904A83A
:106960000CF0E2F904A90AA80CF03FFA0A2221006F
:1069700007A80CF05DFA07A90AA80CF0D4FA0C27B6
:106980006D46016867430DA80CF0CEF900220DA9F1
:106990002800FEF72DFA0F4B0DA8DF190ECD0EC7FC
:1069A0000CF07AF907A80CF077F90AA80CF074F942
:1069B000013404A80CF070F9032CC7D10021300079
:1069C00006F068FB11B0F0BDF40C0020280D00208B
:1069D000FCE80100040D002070B50CF057FC0D4DD3
:1069E0002B68C01A0C4B1B68984211D900240B4E1F
:1069F000E1B2300006F04EFD094AA3000134D05048
:106A0000032CF4D10CF042FC2860300006F0A0FB0F
:106A100070BDC046F00C0020EC0C0020F40C0020EF
:106A2000280D0020054B9868002806D058690028DA
:106A300003D0186A431E9841C0B27047040D00206D
:106A40000E4B820070B5D45805000D49201C0DF086
:106A50007DF9002800D00B4CFFF7E4FF00280BD095
:106A6000094B1B78002B07D10C214D430749201CF3
:106A70004919FCF78BFB041C201C70BD280D00205D
:106A80000000FEC20000C07F84000020040D002032
:106A900010B50400FFF7C6FF002809D00A4B1B7889
:106AA000002B05D12000FFF7CBFF041C201C10BDDC
:106AB000064BA400E4580649201C0DF047F90028B5
:106AC000F4D0044CF2E7C04684000020280D0020DA
:106AD0000000FEC20000C07F73B50A0006006946D0
:106AE000094806F074FA051E0CD000246B466000BD
:106AF0001A5D06493018013411F034FA082CF5D12A
:106B000000233374280076BDF40C002002E9010054
:106B100070B50F4C0021200086B0FFF7DDFF012586
:106B20000226E9B201A8FFF7D7FF002809D021000B
:106B300001A811F052FA002803DD200001A911F08C
:106B400056FA022D02D1200006B070BD3500E8E7EC
:106B500095040020F8B50CF099FB03221D4B43432C
:106B6000D3411D4A934234D80024FFF735FF1B4E12
:106B70001B4BA200D7581B49381C0DF0E7F8002822
:106B800000D0194F194800F04FFA194D0A22210080
:106B900028000BF052F91748391C00F0BDF9B36812
:106BA000002B0FDD2000FFF74BFF071C124800F001
:106BB0003BFA21000A2228000BF03FF90D48391C4E
:106BC00000F0AAF901340C36032CD1D128000BF0C7
:106BD000C7F8F8BDD578E92637894100040D0020B3
:106BE000280D00200000FEC20000C07F07E9010060
:106BF0000C120020C8E8010010E90100F0B5050002
:106C00002F008FB001910BA890490C370CF08CF835
:106C100039000BA80CF0D0F904000BA80CF03CF8DC
:106C2000002C4DD000248A4800F01EFA0A222100D0
:106C300088480BF002F9884800F016FA874BA2004A
:106C4000D7588749381C0DF081F8002800D0854FAF
:106C50000C266643844B696A9E193200381CFCF787
:106C600033FA824902A80CF05FF802A908A80CF0D8
:106C7000BCF80A22210005A80CF0DAF805A908A83A
:106C80000CF051F901680BA80CF04EF8320000210D
:106C90000BA8FDF79DFF0BA80BF0FEFF05A80BF05E
:106CA000FBFF08A80BF0F8FF02A80BF0F5FF01347A
:106CB0003000FCF7D5FA032CB5D100200FB0F0BDA1
:106CC0006B490BA80CF030F839000BA80CF074F9E4
:106CD00006000BA80BF0E0FF002E41D00A275C480D
:106CE00000F0C2F921003A005A480BF0A6F85A48C1
:106CF00000F0BAF90C2363435B4E696BF61832005F
:106D0000686AFCF7E1F95B4902A80CF00DF802A9EA
:106D100008A80CF06AF83A00210005A80CF088F8E1
:106D200005A908A80CF0FFF801680BA80BF0FCFF00
:106D3000320000210BA8FDF74BFF0BA80BF0ACFFB6
:106D400005A80BF0A9FF08A80BF0A6FF02A80BF0FE
:106D5000A3FF01343000FCF783FA032CBFD1ACE76A
:106D600045490BA80BF0E0FF39000BA80CF024F903
:106D700004000BA80BF090FF002C41D034000C272E
:106D80000A263E4800F070F93200210031480BF02D
:106D900054F8314800F068F93B006343324DED1878
:106DA0002800FCF783F9334902A80BF0BDFF02A9C4
:106DB00008A80CF01AF83200210005A80CF038F8E9
:106DC00005A908A80CF0AFF801680BA80BF0ACFF00
:106DD0002A0000210BA8FDF7FBFE0BA80BF05CFFBF
:106DE00005A80BF059FF08A80BF056FF02A80BF0FE
:106DF00053FF01342800FCF733FA032CC1D15CE7C0
:106E0000019800F051F91E4800F04EF91D4800F0BD
:106E100083F91D4800F080F90C251C4800F024F986
:106E200021000A220B480BF008F80B4800F01CF96F
:106E30002B0063430C480134C018FCF711FA032CF3
:106E4000EBD1134800F068F937E7C046BFDB01001B
:106E500020E901000C12002018D70100280D0020A5
:106E60000000FEC20000C07F040D0020FCE801000D
:106E7000C2DB0100E0CB0100C6DB010033E9010009
:106E800048E90100C5EB010003EC01003CE9010009
:106E9000E9E7010073B500240D482300220021001A
:106EA00000940AF029FF0B4E0621300005F0AEFFDA
:106EB000094D3100280006F075F828000C2106F075
:106EC000F5F8064B1860064B9C605C611C6273BD54
:106ED000D00C0020D80C0020F40C0020EC0C00207A
:106EE000040D002010B500280FD0084C200006F03B
:106EF000CBFD0749002805D1200006F0C5FD00287C
:106F000003D0044920000AF022FF10BD0C1200201B
:106F100092EF0100CACA010037B50C4C0D1C0100EC
:106F200020000AF014FF200009490AF010FF281C75
:106F30000FF046FE0B0005210200009120000BF02F
:106F400063F8200003490AF002FF37BD0C1200204D
:106F50007CE80100DED1010030B50C00050087B0EF
:106F6000684629490BF0E0FE284903A80BF0DCFE37
:106F700003AA694620000CF0B5F803A80BF08CFEBC
:106F800068460BF089FE684621490BF0CDFE214989
:106F900003A80BF0C9FE03AA694620000CF0A2F872
:106FA00003A80BF079FE68460BF076FE68461A4996
:106FB0000BF0BAFE194903A80BF0B6FE03AA694606
:106FC00020000CF08FF803A80BF066FE68460BF06B
:106FD00063FE684612490BF0A7FE124903A80BF0A6
:106FE000A3FE694603AA20000CF07CF803A80BF06E
:106FF00053FE68460BF050FE210028000BF0DBFE2C
:10700000280007B030BDC046B0E4010021EC01000B
:107010007CE8010011EC0100D6D8010015EC01005C
:10702000DED1010025EC010000B58BB0010001A804
:107030000BF021FF01A904A80BF0D7FE04A907A8B3
:10704000FFF78AFF07A907480AF07AFE07A80BF0A6
:1070500023FE04A80BF020FE01A80BF01DFE0BB0D0
:1070600000BDC0460C12002000B58BB0010001A885
:107070000BF05AFE01A904A80BF0B7FE04A907A85B
:10708000FFF76AFF07A907480AF05AFE07A80BF0A6
:1070900003FE04A80BF000FE01A80BF0FDFD0BB0F1
:1070A00000BDC0460C12002000B58BB0010001A845
:1070B0000BF0E1FE01A904A80BF097FE04A907A8B4
:1070C000FFF74AFF07A907480AF05CFE07A80BF084
:1070D000E3FD04A80BF0E0FD01A80BF0DDFD0BB013
:1070E00000BDC0460C1200207FB5010068460BF0C1
:1070F0007CFE694603A8FFF72FFF03A905480AF0A5
:1071000041FE03A80BF0C8FD68460BF0C5FD07B0B3
:1071100000BDC0460C12002000B58BB0010001A8D4
:107120000BF002FE01A904A80BF05FFE04A907A85A
:10713000FFF712FF07A907480AF024FE07A80BF083
:10714000ABFD04A80BF0A8FD01A80BF0A5FD0BB04A
:1071500000BDC0460C12002007B5002011F04EFE05
:107160006B460733181A0EBD00230022436082606D
:10717000037301707047007B704780687047407BE5
:1071800070470000F7B50E00150004000021300024
:107190000FF0F9FF174F013DEAB2012321783800C3
:1071A00000F0DCFD380000F07CFE00250190380086
:1071B00000F065FD002809D0380000F072FEC0B272
:1071C000002803D070550135EDB2F0E76B46187911
:1071D000FE280BD0FF280BD0012804D00123022861
:1071E00002D0607BFEBD00236373FAE70223FBE756
:1071F0000323F9E77C0D002010B588B020226946F2
:107200000400FFF7BFFF6073002804D1237B002B2D
:1072100004D104336373607B08B010BD68460FF07F
:10722000E7FD0FF015FDA060F5E7000070B50B4E0F
:107230000C0005000178300000F078FD002C07D02C
:10724000200010F0DCFE21000200300000F0F7FC0E
:10725000300000F021FE00232B7370BD7C0D002058
:1072600010B503490400FFF7E1FF0123237310BDAC
:10727000BDDB0100344BF7B51D68002D59D02F0040
:107280002C373B7828009B0754D500F075F900286F
:107290004FD080236A7C5B0293402C4A1B0C936086
:1072A000AC8C08260192002C08D0302003216043CA
:1072B0000CF080FB0138FDD108260024E88C002862
:1072C00006D03023032158430CF074FB0138FDD164
:1072D0002800640800F050F9002803D080235B42A6
:1072E0001C43E4B2013EF6B2002EE7D13B789B0787
:1072F00001D5E443E4B23F21154A137801330B4032
:10730000144909788B421AD01178134813704454E9
:107310002B8D002B06D03020032158430CF04AFB64
:107320000138FDD180236A7C5B029340019A1B0CDB
:10733000D360F7BD00F020F943425841A7E701238D
:107340003A7813433B70E3E7340D00200018004007
:10735000790D0020780D0020380D00200A4B1B68A5
:1073600083420ED1094A0A4B11781B78994208D002
:107370003F2011781378013303401370054B585C9C
:10738000704701204042FBE7340D0020780D0020BB
:10739000790D0020380D0020F0B5428D03000D005E
:1073A000944685B0002A04D101324260604605B09F
:1073B000F0BD02002C321178C7690222046A08006D
:1073C0001040FE430190114201D0ED43EDB25A7CD2
:1073D00080235B0293401B0C0293029A1B4B9A6022
:1073E0000393019B002B27D023683B436046236017
:1073F0003023032158430CF0DDFA0300013BFDD19B
:107400000823012122680D4219D03A43226002006C
:10741000013AFDD1013BDBB26D08002BF2D1019B9B
:10742000002B0ED023681E402660039B029ADA6070
:107430000138FDD10120BAE723683340D6E7324056
:10744000E4E723681F432760EFE7C04600180040C9
:10745000084B1B68834209D1074B084A19781278F8
:10746000914203D01B78064AD05C7047012040420D
:10747000FBE7C046340D0020780D0020790D002078
:10748000380D00200A4A0300126800209A420DD1EC
:10749000084B1878084B40301B78C01A074B18402F
:1074A00004D5402301385B42184301307047C04681
:1074B000340D0020790D0020780D00203F00008061
:1074C000084B1B6898420CD18023427C5B0293409E
:1074D0000021054A05481B0C9360017004480170A7
:1074E000D3607047340D002000180040790D002053
:1074F000780D002010B5084C00232268824208D184
:1075000001210800527C904082B2044882602360CE
:107510000B00180010BDC046340D002000180040BC
:1075200070B5028D0500141E1CD00F4E002430686B
:10753000A84217D0A04201D0FFF7DCFF2A000124A7
:107540002C3213780949A343137000220A700849AA
:1075500035600A70687C074904329B0700D4032217
:107560000BF0AAFA200070BD340D0020790D002028
:10757000780D00207572000018228369417C01207B
:107580005143034A1B685218526890401840704794
:10759000E4F7010070B5FA25AD008560094D0024BF
:1075A00008350560050003262C354460446284627A
:1075B0002C785B00B44333401C432C70417402743C
:1075C00070BDC0462CEC010070B5012503000E0013
:1075D00029002C331B7804005B08994330000CF021
:1075E0002FF9290030000CF0FBF818214E43054B11
:1075F0009A195268F3569540034ADB019B18E561DE
:10760000236270BDE4F701001044004170B50D0025
:107610000400002128000CF0E3F823002C331B7831
:107620009B0703D4012128000CF00AF91821657486
:107630004D43064A5319596801238B406361AB5689
:10764000034ADB019B18A36170BDC046E4F701004B
:107650002044004170B504000D00017CFFF7B4FF29
:10766000617C2000FFF7D2FF28000DF00FFC011C09
:10767000FE2080050CF028FF0C490DF0EFF80CF00F
:10768000DBFB420883B2023AA2849A1E181E63856D
:10769000E284238506D03023032158430CF08AF975
:1076A0000138FDD12000FFF73BFF70BD0024744975
:1076B00010B5FFF71FFF10BD70B5050000680E0084
:1076C000002801D00BF0ACFE10200BF0A1FE04004E
:1076D0003200682100F00CFA2C600121200000F03B
:1076E00024FA70BD10B50F2100F0EEF80006C00FAF
:1076F00010BDF0B50D0087B004AC082200210700D2
:1077000020000FF040FD6B790A2118000626039334
:107710000CF050F97043039B0A2118182B79607004
:10772000180003930CF046F97043039B0A211818C4
:10773000EB78A070180003930CF03CF94643039BD0
:1077400028009E19E67000F0A0F9061E00D1073649
:107750000A2130000CF02EF9062358433618267102
:10776000AE780A2130000CF025F90623584336186C
:1077700066716E780A2130000CF01CF9062358431C
:107780002D7836180A212800A6710CF013F906236B
:10779000584300232818E071082221000193009328
:1077A0003868013300F0CFF90F21380000F08CF871
:1077B0007F220F210240380000F077F807B0F0BDBB
:1077C0000023F0B50500080089B006AC23700193D2
:1077D00007330093210023000122006800F01AFA09
:1077E0007F20A678A179237967786279247802408E
:1077F00004401811844606200594644640424443E0
:10780000A446141144436344A4460C114443624407
:10781000A446FA246144E400C9B20919059CDBB20C
:1078200024114443A446059CD2B26444E4B20294B9
:107830003C1144433F19341160433018FFB2C0B2C9
:1078400000900197280000F059F8280009B0F0BD19
:1078500030B5012304000D4D8B4206D22878013348
:10786000121892B2DBB20135F6E7022903D9A30759
:1078700001D1013292B26E23FF336343E01C013B1E
:107880008010C018101880B230BDC04650EC010006
:107890000378303BDBB2092B00D900230A22534383
:1078A00040783038C018C0B270471FB56B461973A6
:1078B0005A730023019300930222013303A9006845
:1078C00000F041F905B000BD0B000F2130B587B0C5
:1078D00069440B70002301930093013304001A00E4
:1078E000006800F030F9012305AD1A002900206876
:1078F00000F072F9287807B030BD0000F0B5FA2723
:1079000005AC267806AC257807AC2478FF00B94290
:1079100002D3054FC91989B2C67005710170427052
:1079200083704471F0BDC04630F8FFFF0B780370E0
:107930004B7843708B788370CB78C3700B7903716D
:107940004B794371704770B50400080009300D0091
:107950001600FFF79DFF207028784138122815D8AF
:107960000CF00AF82814143A14261414140A1414E7
:107970002E383614141434006A780123612A04D096
:10798000AB786E3B5A1E934106336370281DFFF798
:107990007FFFA0703000FFF77BFFE070F01CFFF767
:1079A00077FF2071B01DFFF773FF6071200070BD7D
:1079B0000223EAE7AA780423722AE6D0DB18E4E778
:1079C000AA780323722AE0D00233DEE70923DCE73A
:1079D0000A23DAE70B23D8E70C23D6E77FB501ADFE
:1079E0000400160028000B220FF0B1FB0D206844A4
:1079F000FFF74EFF207028784138122815D80BF079
:107A0000BBFF30141442142E1414140A14143640FC
:107A10003E1414143C006A780123612A04D0AB7828
:107A20006E3B5A1E93410633637002A8FFF730FF86
:107A300008223100A07028000FF089FB2800FFF712
:107A400027FF6B46E070D81DFFF722FF20710A2048
:107A50006844FFF71DFF6071200004B070BD022371
:107A6000E2E7AA780423722ADED0DB18DCE7AA78E2
:107A70000323722AD8D00233D6E70923D4E70A2396
:107A8000D2E70B23D0E70C23CEE710B582784178FC
:107A90000078FFF7DDFE072106300CF0FBF8C8B2D6
:107AA00010BD000010B50400827841780078FFF71F
:107AB000CFFE18234343E07822791B183C20434330
:107AC0009B185843024A63799B18C01810BDC046E2
:107AD00080436D3870B5050008001600FFF7E2FF1F
