:1020000000800020E938010039330100E738010081
:1020100000000000000000000000000000000000C0
:10202000000000000000000000000000E738010090
:102030000000000000000000E73801003D39010009
:10204000E7380100E7380100E7380100E738010010
:10205000FD320100E738010039CC00001DE8000026
:10206000E7380100AD220100E7380100E738010040
:1020700031830000E7380100BD220100E73801008C
:10208000E7380100E738010055520000E738010049
:1020900000000000E7380100E7380100E7380100E0
:1020A000E7380100E7380100E7380100E7380100B0
:1020B0000000000010B5064C2378002B07D1054B1B
:1020C000002B02D0044800E000BF0123237010BDA4
:1020D0002004002000000000B00D0200044B10B5E9
:1020E000002B03D00349044800E000BF10BDC046E8
:1020F0000000000024040020B00D020010B52D20C7
:1021000011F056FE13F068FA054912F007FF15F0BA
:10211000B7F8044A044B14F00BFA15F0F9F810BDA7
:102120000D68533B9A9999999999134010B5FFF707
:10213000E5FF10BD7FB5194D1949280005F070FC69
:10214000041E0BD1174805F063F90D2003F026F8A3
:102150000D2003F011F8200004B070BD6846124A4B
:10216000124905F0EFFD280005F070FC002807D0AB
:102170000F4805F04DF96946280005F06EFCEAE7C6
:10218000684605F043FE2900060002A805F0CCFCD5
:1021900002A805F03BFE8642EAD8DCE73C040020BA
:1021A000EC0D002098D00100C3D00100CCD001007C
:1021B000D8D0010030B58FB004AC05000D49200027
:1021C00005F0B2FCFA206179A37862780391217955
:1021D000C0000291E178019121780918009106A8C8
:1021E000054916F01FFA280006A911F0FDF828008D
:1021F0000FB030BD3C04002005D101007FB568461A
:10220000FFF7D8FF084805F0E3F8694603A811F086
:102210004CF903A805F01CF903A811F09DF86846D5
:1022200011F09AF807B000BD23D1010010B50400E9
:10223000283011F091F82000183011F08DF82000AE
:102240000C3011F089F8200011F086F8200010BD44
:10225000F0B5574C8BB0A36803902000059311F0A4
:1022600034FB544D544B290007A86362636311F09B
:10227000BBF807A9200011F041FA060007A811F0E9
:102280006BF8290007A811F0AFF8731C1A0007A912
:102290002000049311F022FA050007A811F05CF861
:1022A000464F0A223100380010F01DF94449380029
:1022B00010F0A3F80A222900380010F018F93300B2
:1022C0000022210007A811F045FA200007A90C30D0
:1022D00011F0F5F807A811F03FF8002E5BDD2B0098
:1022E0002100049A07A811F035FA200007A9183038
:1022F00011F0E5F807A811F02FF8002D51DD2100AD
:10230000059B6A1C07A811F025FA200007A92830B0
:1023100011F0D5F807A811F01FF8254D2B6A002BF6
:1023200005D0A86915F0C4F814F0F2FF68622B6BB1
:10233000002B05D0A86A15F0BBF814F0E9FF68621D
:1023400026001E4D21000C36280010F071F83100D7
:10235000280010F06DF8606A1A4912F0DFFD14F0E1
:102360008FFF022702000B002800009710F0A9F948
:10237000606A144912F0D2FD14F082FF0097020047
:102380000B00280010F09DF93100039811F08DF832
:1023900003980BB0F0BD20000B49183011F097F8EE
:1023A000ABE703480849283011F091F8B5E7C0467B
:1023B0000C00002038D101000000C07F7C120020FA
:1023C00026D901000000C8422AE0010010B5C82447
:1023D000013C04490448A4B210F034F8002CF7D1B1
:1023E00010BDC046BAEF01007C12002070B5040099
:1023F0000D0011F05AF8290020000C310C3011F0BA
:1024000054F8290020001831183011F04EF8290036
:1024100020006B6A28316362283011F046F86B6B3C
:102420002000636370BD0000F0B591B0994902A827
:1024300010F0DAFF984C02A825000C35290011F0A5
:102440001BF9060002A810F087FF002E12D001230E
:10245000924C934822785340237004F099FF2378DC
:102460009048002B00D1904805F00AF802F036FBA6
:10247000012489E08D4902A810F0B6FF290002A8C6
:1024800011F0FAF8070002A810F066FF002F3ED006
:10249000236A002B05D1FFF7B1FE854804F0F0FF59
:1024A000E6E7270018373100380011F009F9007805
:1024B00017F018F831000500380011F001F9057027
:1024C0007C4D0A22216A280010F02BF80A222800ED
:1024D000216B10F026F8236A0B2B16D1236B082BE7
:1024E00013D1A169A26A684605F0E1FB684605F0D0
:1024F0008DFC029002A8039614F0DFFF04F0C0FFE9
:1025000069466D4805F0A9FAB2E76C48C6E76C4920
:1025100002A810F069FF290002A811F0ADF806002A
:1025200002A810F019FF002E03D0626A5B4B5A60BC
:102530009CE7644902A810F057FF290002A811F097
:102540009BF8060002A810F007FF002E03D003F04E
:1025500059FB5D48A2E75D4902A810F045FF29003C
:1025600002A811F089F8060002A810F0F5FE002E6E
:102570000DD00124564D57482B7863402B7004F042
:1025800007FF287804F062FE200011B0F0BD524928
:1025900002A810F029FF290002A811F06DF806002A
:1025A00002A810F0D9FE4D4D002E03D0FFF70EFF0C
:1025B00004232B704A4902A810F016FF210002A83C
:1025C0000C3111F059F8060002A810F0C5FE002EDB
:1025D00003D0FFF7FBFE01232B70424902A810F045
:1025E00003FF210002A80C3111F046F8060002A8F2
:1025F00010F0B2FE002E03D0FFF7E8FE02232B708E
:10260000394902A810F0F0FE210002A80C3111F0A7
:1026100033F8060002A810F09FFE002E03D0FFF74B
:10262000D5FE03232B702B78304D042B0CD12100C9
:1026300002A8FFF7DBFE296802A802F0D5FE04001D
:1026400002A8FFF7F3FD9FE7012B08D1210002A8A4
:10265000FFF7CCFE296802A800F048FAEFE7022B4A
:1026600008D1210002A8FFF7C1FE296802A804F0E2
:1026700079FCE4E7032B08D1210002A8FFF7B6FE9E
:10268000296802A803F05EF8D9E7286804F0C0FEC4
:10269000EEE6C0463AD101000C0000208400002084
:1026A0003ED1010062D101008FD1010093D1010020
:1026B00099D101007C1200203C040020DDD10100F2
:1026C0005BD2010068D201006DD201008AD2010004
:1026D0004A04002090D20100A2D201004904002047
:1026E000A8D20100ABD20100B0D20100040000204A
:1026F00030B585B001A8FFF7ABFD01A810F02CFEA6
:10270000144901A810F070FE134C01A80C342100EC
:1027100010F0B2FF050001A810F01EFE002D05D03C
:1027200000220E4B1A70012005B030BD0C4901A8E3
:1027300010F05AFE210001A810F09EFF040001A82D
:1027400010F00AFE002C02D003F05CFCEBE7FFF770
:102750006BFEE9E7B9D201000C000020490400201B
:1027600021D1010037B5002110480B000A0000916B
:102770000FF018FE0E4D0F4C2900200010F034FE13
:10278000200029000C3010F02FFE20002900183006
:1027900010F02AFE20002900283010F025FE20002D
:1027A000054A064911F036FC37BDC04640040020FA
:1027B0002AE001000C000020000000202D22000073
:1027C000F8B50024224E234B30001C700BF028FC7F
:1027D000A04203D0204B1C80204B1C701F4B1C7848
:1027E000002C33D130000BF01BFC1D4D002814D001
:1027F00030000BF032FCC4B20A2C0CD10123174A72
:102800001370144A137000232B80134B124A1B8839
:1028100001331380E2E70D2CF0D02B88772BEDD01D
:1028200096210D4A490012888A42E7D2002CECD04A
:102830000C4F002B03D138000B4910F048FE21004B
:10284000380010F0A8FE2B880133DDE7F8BDC04644
:102850007C120020480400204E04002008000020C4
:102860004C0400200C0000202AE0010070B503F0A9
:10287000D5FB041E02D10024200070BDFFF7A0FF8D
:10288000104B1D78002D07D003F0AEFB2C00FFF796
:102890002FFF03F063FBEFE70B4B1B78042B02D1F8
:1028A00002F07CFDE8E7012B02D100F09DF8E3E7A0
:1028B000022B02D104F002FBDEE7032BDBD102F096
:1028C00017FFD9E7480400204904002010B5144838
:1028D00004F0D6FD302011F0FBF80023152214215E
:1028E000040005F00BF896212000890105F066F838
:1028F000642011F071F820000A490FF07EFD0A22D1
:10290000642120000FF0EFFD23680D211B682000DB
:102910009847642011F060F8200005F07DF810BDA4
:10292000E2D8010023D9010010B5FFF7CFFF10BD99
:1029300010B5102011F0CCF80400642104F0C8FD9B
:10294000014B1C6010BDC046500400200E4B10B55A
:10295000186804F0C8FD0D4B1870013800230328D7
:1029600007D811F069FB02080C0E094804F030FD8D
:102970000123180010BD074804F082FDF8E706485F
:10298000FAE70648F8E7C046500400205404002047
:1029900028D9010040D9010059D9010072D901009C
:1029A0000C4B70B51B780C4C0C4D002B08D12068DB
:1029B00004F095FD002803D0206804F0D1FD2870B4
:1029C0002B78022B02D0206804F0FEFD206804F072
:1029D00088FD70BD550400205004002054040020E0
:1029E00010B5FFF7DDFF10BD10B510F0AFFF0322EB
:1029F000074B4343D341074A934208D8FFF7D0FF20
:102A0000011C054804F03CFC044804F039FD10BDED
:102A1000D578E9263789410088D901002AE00100EC
:102A2000F0B5037806000C008BB0632B02D0FA27B8
:102A3000722B00D1264F10F089FF0190254D286898
:102A400004F051FD03280FD010F080FF019BC01A45
:102A5000FA239B00984207D2FFF778FF20222868CC
:102A600002A904F043FDE9E73100286804F092FD73
:102A70003000194915F011FE002808D1002C03D1AF
:102A8000164804F0FDFC013420000BB0F0BD002C12
:102A900002D1134804F0F4FC380010F09DFF20220E
:102AA00002A9286804F022FD286804F01CFD0D4BE3
:102AB000010018700A220C480FF015FD02A804F05E
:102AC000DFFC0124FFF742FF4440E4B2DCE7C046EC
:102AD0003A020000500400209CD90100A2D9010054
:102AE000AED90100540400207C12002030B58BB018
:102AF0000D00010001A810F0D8FC204904A810F036
:102B000073FC1F4907A810F06FFC04A907AA01A8CD
:102B100010F048FE07A810F01FFC04A810F01CFCE1
:102B2000019C184804F054FC200004F0A9FC20008B
:102B3000154915F0B2FD002819D1280004F068FCF1
:102B4000124804F065FC124804F09AFC114804F0A5
:102B50003FFC01211048FFF763FF104804F090FC90
:102B6000002401A810F0F8FB20000BB030BD2000BD
:102B70000021FFF755FF041EDFD0F2E738D1010036
:102B800026D90100C6D90100A8D20100D1D901007F
:102B9000AEDD0100ECDD010001DE01004AF30100C1
:102BA0000020704710B5103007F092F910BD13B532
:102BB0006B46DC1D01222100103007F0C7F8012808
:102BC00001D1207816BD01204042FBE710B510303E
:102BD00007F07AFA10BD10B5103007F02DFC10BDCB
:102BE00007B56B46D971073301221900103007F081
:102BF00023FC0EBD030010B5002802D015F05FFDC8
:102C00000300180010BD10B5006903681B699847E0
:102C100010BD10B5006903685B69984710BD10B519
:102C2000006903689B69984710BD07B5C900411842
:102C30000822684614F0EBFD0098019903B000BD2E
:102C4000037C020000201B0704D5D36A506A181ABF
:102C500000D501487047C046FFFFFF7F0A21435E51
:102C60000200181E01D01B01D018704770B5050076
:102C70000E000468002C04D02000FFF7EFFF86420E
:102C80000ED13000FFF7EAFF002C0BD0031E02D05C
:102C9000031B1B111BB26381002800D16C6070BD47
:102CA0000400E7E72860F7E7F8B50D1E1AD00468BE
:102CB000002C17D02800FFF79DFFE76806003800BA
:102CC000FFF798FF864208D100239E420BD0E95CB3
:102CD000FA5C914201D10133F7E72000FFF7BEFF14
:102CE0000400E5E700242000F8BDF7B50D1E0091B3
:102CF000019217D00468002C14D0E668019F3000C0
:102D0000FFF778FFB84208D10023BB420BD0E95C43
:102D1000F25C914201D10133F7E72000FFF79EFFFB
:102D20000400E8E700242000FEBD10B5002813D001
:102D3000027A402314001C401A420CD0006800287C
:102D40000AD0002908D00A22835E0139002B04D062
:102D50001B01C018F5E7200010BD1800FCE70200B9
:102D600048688B681030834203D2012300200B7423
:102D70007047103B18008B605368002B08D0C11AB5
:102D8000091159810023506043810372C360EFE74A
:102D90001060F7E770B50025436A0400C3181D7181
:102DA000011D006810F0EAFBA84200D06562606A6D
:102DB00070BD436A70B5013304000D001F2B06D8A7
:102DC000606A431C201863620571012070BDFFF723
:102DD000E1FF0028F4D00020F8E70000F0B5037808
:102DE00005000F0089B02B2B31D0002203922D2B30
:102DF00002D101352C3B03932B781A00303A092A73
:102E000004D9002200922E2B00D0AEE00020002139
:102E10007F4E2B781C00303CE4B2092C1AD8B1420A
:102E200024D802D17B4B984220D800230A2211F0EB
:102E30003BFB002304940593E3434A1C01D19842D1
:102E400014D8049B059C0135C0186141E1E70023BB
:102E50000135D0E7002B09D1039B002B25D080231F
:102E60001B06994202D811D100280FD080260024D9
:102E70007603B14224D2641B2B191BB204932B7826
:102E80001A00303A092A22D80135F5E77F223B7A29
:102E900093431A000A2313433B72002342428B419F
:102EA0003A607B60039B00935FE07F223B7A38604F
:102EB000796093431A00082313433B720123F2E71E
:102EC0000A220023013411F0CFFA24B2D1E72E2BCD
:102ED0001DD1514E01352C78303CE4B2092C16D866
:102EE000B14212D802D14D4B98420ED800230A228B
:102EF00011F0DAFA002306940793069B079CC0188A
:102F00006141049C013C23B204930135E3E7202294
:102F10002B7800249343452B45D16B782D2B27D15B
:102F20002C3B023500939A235B0000240A229C4626
:102F30002B78303BDEB2092E31D854431C19049B48
:102F40001B19634529DD00997F223B7A002916D0A1
:102F5000039900240025002901D080252D069343E4
:102F60000C223C607D6013433B72009809B0F0BDB9
:102F70002B2B02D001350094D5E70235FBE70399EE
:102F80000020002907D1264993430C2213433860BF
:102F900079603B7292E72349F6E70135C8E7009B69
:102FA000002B00D0644200232D7800939D42DCD199
:102FB000049B1C1911F06AFB1B4E002C00DC1B4EFD
:102FC000E317E4185C40002C10D001231C4209D008
:102FD000EB00F318009001911A685B680098019962
:102FE00013F0A6FA01356410EDB2ECE7039B002B59
:102FF00002D080231B06C9187F223B7A93431A0014
:103000000C2313433B7202000B003A607B6055E7D0
:1030100099999919999999999999010098999999D2
:103020000000F07F0000F0FF48E2010000E2010034
:103030000268536843609168CB1A0021C3608160C5
:103040008B4201D1012313747047836810B5C468A3
:103050005A1CA24203D244688260E15410BD01228E
:1030600003681A74FAE700000023FA22436003821F
:103070008374024B92008260036070479CE1010000
:1030800013B501210E4B0F4A186808420CD10E48A7
:10309000006810600D48006850600D48006890603E
:1030A0000C4800681960D060D3680B4C019393689A
:1030B0002000009309490CCA15F0B4FA200016BD8F
:1030C00058040020640400200CA0800040A0800070
:1030D00044A0800048A080007404002007DE0100A6
:1030E00010B586B004000F49684610F07DF96946B6
:1030F00003A810F0DAF90C4903A810F081FA0B4983
:1031000010F07EFA0A4910F07BFA0100200010F05E
:10311000CCF903A810F020F9684610F01DF9200042
:1031200006B010BD1CDE010037DE01007404002073
:1031300047DE010010B586B004000F49684610F064
:1031400053F9694603A810F0B0F90C4903A810F030
:1031500057FA0B4910F054FA0A4910F051FA0100DD
:10316000200010F0A2F903A810F0F6F8684610F05D
:10317000F3F8200006B010BD1CDE01004DDE01009A
:103180009504002047DE010070B50025040085602D
:10319000280010F0A1FC2060280010F09DFC606069
:1031A00070BD0000F0B5936889B02E4D0590581C95
:1031B00014000691A84236D8800010F08DFCA36858
:1031C0000390581CA84231D8800010F085FC0025DF
:1031D000A368049001930295019BAB4229DD23680B
:1031E000AE009F19029B002B0DD13968059811F094
:1031F00013F9002807D0039B059A9A51049B069A5D
:103200009A51012302933A68029B07920799039A05
:103210005B199B00D150626801359259079207995A
:10322000049AD150D8E701204042C6E7012040422D
:10323000CBE7019B019ADB43DB171340029A002A7C
:1032400006D1039A05999B00D150049A0699D15052
:10325000039B2360049B6360019B0133A36009B05F
:10326000F0BDC046FEFFFF1FF7B50F00011C041C98
:1032700012F036F900285AD1BB68251C0193002BA7
:103280000AD03E687B683168201C009311F0CEF8AC
:10329000002803D0009B1D68281CFEBD6B461D79CD
:1032A000244B201CED18AD00715911F0D3F8012307
:1032B000002802D0009B5D59EEE70193019B201C82
:1032C0009D007759391C11F0BBF8002803D0019BF1
:1032D0000133DBB2F1E7009B391C201C5D5911F072
:1032E00095F80028D8D1134A019B94466344009A6C
:1032F0009B00F658D358311C201C009311F028FF76
:103300000099041C281C11F023FF011C201C11F043
:1033100005FE311C041C381C11F01AFF011C201C76
:1033200011F032FC009911F093FA051CB4E7024D3C
:10333000B2E7C046FFFFFF3F0000C07FF7B50400C3
:10334000184804F045F8A368174E002B25DD00252A
:103350002368AF00D85913F093FF0B00022102003D
:10336000009130000FF0A6F9104804F031F86368BE
:103370000135D85913F084FF0B000221020000919F
:1033800030000FF097F90A4804F022F8A368AB4226
:10339000DEDC30000FF03AF8F7BD064804F018F80C
:1033A000F7E7C0465ADE01007C12002068DE01000B
:1033B0006BDE01006FDE01000200F0B500684C68B2
:1033C00055680319AB4210D21B78002B08D10D6849
:1033D0009C420BD0EF5CC65CB74201D10133F7E7EA
:1033E00003780130002BFBD1EAE70020F0BD73B574
:1033F00046680C000191694605000096FFF7DCFF66
:10340000002804D13419631C6B602070300076BD35
:1034100003002833036043609D33FF338360C36040
:103420000023421C0374D377704770B5057A0200FD
:10343000202428002040254202D01000FFF734FC51
:1034400070BD10B51830FFF7F0FF431E9841C0B2B1
:1034500010BD1FB5031E2BD07F22007A1040043808
:10346000082825D810F0E8FD141405240A240F2498
:103470001F00187812F0B0F805B000BD1868596840
:1034800011F0E0F8F8E71868596811F0A7F8F3E7C9
:103490006A461868002369461372FFF79FFC684666
:1034A000FFF7D7FFE8E71868596813F031FFE3E743
:1034B0000020E1E77F2230B50300007A85B010409C
:1034C0000438082810D810F0B7FD1D1D050F080F8F
:1034D000110F2800187805B030BD09CB002B03D19F
:1034E00080231B069842F6D30020F4E780221C6854
:1034F0005D680023120612196B4100208342EAD155
:103500002000E8E76A461868002369461372FFF74F
:1035100065FC6846FFF7CEFFDDE71C685D680022AA
:1035200020002900084B10F05BFF0028D3D02000BA
:103530002900064A064B10F03FFF0028CBD02000A0
:10354000290013F011FEC6E70000E0C10000C0FF33
:10355000FFFFDF41F8B58E68050030000F0014F062
:1035600029F903005A1E93415B421E40041E686005
:10357000AE6003D03200796814F049F9002E0BD008
:10358000F9683E692000761A320014F040F9EC60C8
:10359000A4192C612800F8BDEE602E61FAE7000046
:1035A00070B5040086B010000E00150014F002F98A
:1035B0000290002817D1039000236360FA2304903F
:1035C000059020009B00A3600A4B01A9236026619F
:1035D0001830FFF7BFFF029814F0F6F82000064BF2
:1035E000236006B070BD03956A1E95416D42284068
:1035F000E2E7C046C0E10100E4E1010010B50400CB
:1036000008002269E168914203D00368521A5B689E
:10361000984763682361E36010BD10B504691830F2
:103620002100FFF7EBFF23682000DB68984710BDFF
:1036300010B50400054B216903601830FFF7DEFF69
:10364000E06914F0C1F8200010BDC046C0E10100DF
:10365000030070B51D6A0069002D05D103681B6861
:1036600098470400200070BD9A6A5C6A141BA5424A
:1036700005D14C210A4B0B4A0B4813F0FBFE541C9E
:103680009C621170596A9A6A0124521A196A8A4214
:10369000E8D1183301001800FFF7B0FFE2E7C04699
:1036A0007FDE010089DE010028DF0100F7B504009C
:1036B0000769636A806A16000025019198421AD052
:1036C000C51A236A5D1B954200D915002A0001998D
:1036D00014F09DF8019AA36A52190192626A5B196B
:1036E000A3629B1A226A761B934204D12000390000
:1036F0001830FFF783FF002E09D0226A964208D3C4
:103700003B68320038005B68019998472D18280003
:10371000FEBDA06A636AC31AD31A1F00B34200D960
:1037200037003A00019914F072F8A36AED19DB1919
:10373000A362ECE737B5437E0400002B0CD16B4647
:10374000DD1D0122290040690FF0D1FA031E00D0CF
:103750002B78237601236376207E3EBD70B504006E
:1037600001252000FFF7E6FF031E0BD0093BDBB26B
:10377000172B0CD82A009A40074B1A4207D0002377
:103780006376EEE7207C431E9841013070BD012333
:1037900000202374FAE7C0461300800070B50500CE
:1037A0000C00207800280CD02800FFF7C3FF002869
:1037B00006D02378834205D1002301346B76F0E7ED
:1037C000022070BD0320FCE7F0B516001F0009239E
:1037D0000500837285B00022300039006E4B10F076
:1037E000FFFD002863D00023082400930133FF333A
:1037F000019321006948FFF718FA32003B0010F0EE
:10380000DBFD002811D021006548FFF70EFA020009
:103810000B003000390012F08BFE019A060094462E
:103820000F00009B63441BB20093019B5B1001934C
:10383000013CDED20394002200233000390010F056
:10384000C5FD00283AD030003900564A564B10F0DA
:10385000B3FD002832D000230293029A039B9C1AE6
:1038600023062BD421004E48FFF7DFF900224F4BEF
:1038700012F05EFE32003B0010F0A8FD002810D0D0
:1038800021004648FFF7D1F902000B003000390053
:1038900012F04EFE0F00009B019A0600981A03B228
:1038A0000093019B5B100193029B0133D4E78023BB
:1038B0005B000193F83B03930090BCE7009B300052
:1038C00039002B8110F030FE394C019028600290B5
:1038D000029B092B0DD90A21200010F0CBFBAB7AFB
:1038E0000400013B02980A21AB7210F0C3FB029066
:1038F000EEE7019813F09EFC02000B003000390047
:1039000013F082F8060020000F0013F093FC020071
:103910000B003000390012F00BFE0F00060010F013
:1039200003FE029013F086FC02000B003000390009
:1039300013F06AF80B00020011F08AFE10F0F4FD9B
:10394000029BC018A04214D268600A26194F0122B7
:103950006868194B4343D341BB421AD80A242C57F9
:10396000002C16DD310010F085FB013C6860AC7264
:10397000EDE700236B60019B009A01332B60002A66
:10398000E3D0092BE1D910000123013028812B60FD
:10399000DBE7280005B0F0BDD012634148E201002A
:1039A00000E20100F168E388B5F8E43E000024403D
:1039B00000CA9A3B99999919CDCCCCCC10B5002866
:1039C00001D0FFF732FD10BD70B504000D00FFF708
:1039D000B1FE0023A84201D163760133180070BD07
:1039E000F0B589B004001F0002910392002820D096
:1039F000037A0E00019219007F221140134205D173
:103A000093435F3A1343037201604160227A20239B
:103A1000110019401A4243D0002E09D0019A3100FA
:103A2000200004960592FFF760F9002804D00600F4
:103A30003400200009B0F0BD39002000FFF78FF9F5
:103A4000051E16D0019B380006A906960793FFF7BE
:103A5000B3FC00281DD1019A7B680132B9689A181D
:103A60008A4208D901233B7429002000FFF7FEF8A1
:103A700000252E00DCE77A60002BF5D0019A824207
:103A800003D0325C1A540130F8E700221800019983
:103A90005A5480232A7A5B4213432B72E860E8E78A
:103AA0000C00C6E770B505000C001600002826D0F3
:103AB0002B7A08007F2219001140134205D193434D
:103AC0005F3A13432B72296069602A7A2023110020
:103AD00019401A4215D0002C10D021002800FFF701
:103AE000E3F800280AD131002800FFF738F9002850
:103AF00004D07F22037AC4601340037205002800BB
:103B000070BD0D00FBE70000F0B50600504B183605
:103B10000400020085B030004E491D78FFF7C2FF57
:103B2000002807D07F22037A057093431A000623EA
:103B300013430372464B2200300047495F68FFF78A
:103B4000B1FF051E0BD07F22037A93431A000C238A
:103B500013430372381C13F093FB286069603C4BDD
:103B6000220030003D499D68FFF79CFF002809D0E6
:103B70007F22037A056093431A000A23ED1713434B
:103B800003724560220030003549FFF78BFF071EA6
:103B90005BD02F4D0C352800FFF72CF823680290DE
:103BA00001930395019B029A65689B18AB4232D240
:103BB0001E78002E11D10398FFF71CF8029B834258
:103BC0000BD1029BB34223D0214B019A9B19925DEA
:103BD0001B7B9A4201D10136F3E7019B019A1B78C6
:103BE00001320192002BF8D1DCE76360002D1ED07A
:103BF0000023984205D0164AD218127BEA540133AA
:103C0000F7E700232B5412E0019D10E03C721CE00A
:103C1000019B002BF8D10E480C30FEF7EBFFA26899
:103C2000431CEB189342E0D90123002523747F2322
:103C30003C7A9C43002DE9D005480C30FEF7DAFFB2
:103C400005231C433C723D60786005B0F0BDC04662
:103C5000840000209ADF0100A9DF0100C4DF010019
:103C600003E0010070B58D6804002A004868C96847
:103C7000FFF718FF002809D07F22037A93431A0028
:103C80004023134303720023036043602060656098
:103C9000200070BDF8B5050016000C008F18BC425E
:103CA00005D021782800FFF784F80134F7E7AB6AE4
:103CB0009E19AE62F8BD70B5050008000C0014F046
:103CC000FEFC210002002800FFF7E4FF70BDF0B504
:103CD00016260700140089B01D0002ABF61820005C
:103CE00029000A22002310F0BFFB013E30320023DE
:103CF0002000290032700A220094019510F0B4FBD4
:103D0000019B04000D00002BE9D1009B092BE6D894
:103D1000162302AA9B18310038009A1BFFF7BAFF3E
:103D200009B0F0BD10B50400006803685B689847EF
:103D300063681818606010BD70B5050008000C00BD
:103D400014F0BDFC210002002800FFF7EBFF70BD5E
:103D500070B5050000242B7AA34206D92800034938
:103D60000134FFF7E9FFE4B2F5E770BDE3EF0100CE
:103D7000F0B516260700140089B01D0002ABF61836
:103D8000200029000A22002310F06EFB013E303291
:103D900000232000290032700A220094019510F0BF
:103DA00063FB019B04000D00002BE9D1009B092B54
:103DB000E6D8162302AA9B18310038009A1BFFF799
:103DC000B1FF09B0F0BD73B50C00C1B27F2803D8B4
:103DD0002000FFF73AF973BD00236A463F251370B0
:103DE00080226B462940524211438009597081B2AA
:103DF000C3B21F290CD8403213436A469370D51CB6
:103E0000013D29780029E6D02000FFF71EF9F7E7E9
:103E10006946FC262B40134380118B7083059B0D54
:103E2000B600D9B2304206D120226B46524211432D
:103E3000D97001ADE4E70D4069462A43CA701022EB
:103E40009B11524213430B714D1DD9E7F7B5050085
:103E50000026FFF76FFC6E7601902800FFF76AFCE2
:103E60000024019B01006C76834255D0A04201D111
:103E70000220FEBD5C284BD12800FFF75BFC002828
:103E8000F6D0284B752839D104276C762800FFF727
:103E900051FC0028ECD0402805D83038C0B20F289B
:103EA00005D90320E5E7202398433738F6E70023B8
:103EB0002401013F0443FFB2A4B26B769F42E5D1D7
:103EC000A02380229B01E3189BB2D200934202D22E
:103ED000A405A60DC1E790239B01E3189BB2200027
:103EE000934206D280238005B402800D20435B02FA
:103EF000C0182900FFF767FFAFE702331A78002ADE
:103F0000CFD09042F9D159780029CAD000236B76DE
:103F10002800FFF79AF8A0E72B68187C431E984109
:103F20008000A6E71AE00100030000202F2B0FD924
:103F30000130392B0CD95E2B07D97A2B08D90020F8
:103F40005A229A424041C0B202E00020402BF6D8EB
:103F50007047F7B5DBB204000F0005250193002B75
:103F60001ED000234376FFF7F9FB051E18D17D21F3
:103F70002000FFF729FD002812D12000FFF758F894
:103F80002000FFF7D7FB27280CD022280AD02000DA
:103F9000FFF7D0FB0600FFF7C7FF00280ED103256F
:103FA0002800FEBD2000FFF751FF00285AD1200055
:103FB000FFF7D4FB061E15D00500F1E70023310002
:103FC00020006376FFF741F82000FFF7B3FB0600FF
:103FD000FFF7AAFF0028F1D123681B7C002BE6D055
:103FE0000425DDE73A212000FFF7EEFC0028D6D0BB
:103FF0006368A26838009E546168FEF755FE011E92
:1040000011D1A1682068FFF7F2F9E16906003800D4
:10401000FEF7A5FE0028E3D080220100037A524279
:1040200013430372C660019B00222000013B00F095
:104030001BF8002816D12000FFF790FB002811D1B3
:104040007D212000FFF7C0FC0028A9D12C212000F1
:10405000FFF7BAFC0028A2D02000FFF77FFB002862
:1040600000D18AE705009BE7F7B505000E001F1C8D
:10407000FFF774FB041E00D085E02800FFF75AFB11
:10408000662800D1A2E01BD8272803D05B2841D0A6
:1040900022281ED12800FEF7CBFF2800FFF7D6FE0E
:1040A000041E70D1A9682868FFF7A1F97F22337A2E
:1040B000A96893431A0005231343337203C662E0D1
:1040C000742800D174E07B2861D051496E2800D15A
:1040D00078E02800FFF72EFB2B002F0040330193E0
:1040E0007B1BDBB22F2800D87AE0392806D90200E2
:1040F00020218A43D2B2452A00D07AE0019B0137C1
:10410000BB4200D181E000236B76F8772800FFF7EF
:1041100011FBE5E77F22337AFFB293431A00402375
:104120001343337234607460002F2BD06C762800F8
:10413000FFF714FB041E26D15D212800FFF744FC85
:10414000002820D1E9693000FEF709FE011E1CD0CD
:10415000002228007B1EFFF787FF002826D12800B9
:10416000FFF7FCFA002821D15D212800FFF72CFC85
:10417000002808D12C212800FFF726FC0028E1D1D7
:10418000032400E005242000FEBD0424FBE77F2279
:10419000337A310093431A002023134333720022F1
:1041A0002800346074603B1CFFF7D3FE0400EAE78C
:1041B0007F22337A174993431A000623134333723D
:1041C000012333702800FFF7E9FAEFE77F22337A03
:1041D000114993431A000623134333723470F1E7F5
:1041E0002B2800D18AE702002D3AD2B2012A00D84A
:1041F00084E700222800EB1801333100DA77203001
:10420000FEF7ECFD0028BED1BAE73F23F1E7C04638
:1042100036E001002BE0010030E00100036830B51A
:104220004360C3687F2583600023441C0374E27FDE
:1042300099B0AA43E27705916A4601001374537658
:10424000009007900A23002268461831FFF70CFF00
:1042500000280AD16B46187E002806D0E27F08238A
:10426000100018401A4200D0032019B030BD10B51C
:104270000400FEF79EFDA36A1818A06210BD00009E
:1042800070B504000B4B9D78002D0CD0DA7802330A
:104290008A42F8D15C212000FFF7E9FF29002000C5
:1042A000FFF7E5FF05E00029F9D120000249FFF7FB
:1042B00002FD70BD1AE001003BE00100F0B5150001
:1042C0001C0006008DB02A0023002800210010F0F9
:1042D00063F8002805D130005549FFF7ECFC0DB01C
:1042E000F0BD002200232800210010F055F800281E
:1042F0000DD12A0023002800210011F0A9F90200A5
:104300000B002800210010F047F80028E3D100221C
:1043100000232800210010F045F8002806D02D21A8
:104320003000FFF7A4FF80231B06E4182300262497
:104330000A272A0003A8FFF747FA02AB039DE418F7
:10434000280039000FF01CFF013C3031280021709B
:10435000390000950FF08EFE009B0500092BEFD869
:10436000262302AA9B181A1B21003000FFF792FC9B
:1043700002AB9B7B5BB20093002B25D00A27049CE9
:1043800001930AAD019B013D013B5BB201930133F7
:104390000BD0200039000FF0F3FE303120002970DF
:1043A00039000FF067FE0400ECE76B461978202413
:1043B000CB432E2202A81B19C2544A1CC9430AAB84
:1043C00030005918FFF766FC02AB0C229B5E002BF5
:1043D00000D184E765213000FFF749FF02AB0C25CF
:1043E0005D5FACB2002D05DA2D213000FFF73FFFF5
:1043F0006C42A4B2262302AA9B181D000A272000A3
:1044000039000FF0BDFE013D303120002970390028
:1044100000940FF02FFE009B84B2092BEFD82623C7
:1044200002AA9B18290030005A1BFFF733FC56E7FD
:1044300036E00100F8B50500037A7F200C00184033
:104440000C280DD87E2213420ED002380A280BD831
:104450000FF0F2FD6A6A5959850A820A6F0A0C0048
:10446000202824D0402808D041497DE008002A684F
:104470006B68FFF723FFA06AF8BD5B212000FFF700
:10448000F6FE2D68002D0DD021002800FFF7D2FF89
:104490002800FEF7E3FB051E04D02C212000FFF7C7
:1044A000E6FEEFE75D212000FFF7E1FEE3E77B2179
:1044B0002000FFF7DCFE2D68002D22D022212000F5
:1044C000EE68FFF7D4FE3178002904D020000136D1
:1044D000FFF7D6FEF7E722212000FFF7C8FE3A21BA
:1044E0002000FFF7C4FE21002800FFF7A3FF2800EB
:1044F000FEF7B4FB051E04D02C212000FFF7B7FE09
:10450000DAE77D21CFE7222120002F686E68FFF7D0
:10451000AEFEBE19BE4205D039782000FFF7B0FECE
:104520000137F7E72221BEE7200006CDFFF7B2FBF7
:10453000A1E72E686F68002F08DA2D212000FFF711
:1045400096FE32003B00002756429F4132003B005E
:104550002000FFF7BCFB8EE72A686B68F8E72B7832
:104560000449002B00D104492000FFF7A4FB82E797
:1045700036E001002BE0010030E00100F0B506005C
:10458000B5B00800002E06D07F22337A1340042BEA
:1045900047D0052B45D0002301900A9301AA0BAB0D
:1045A00013CA13C313CA13C313CA13C312680BA8C5
:1045B0001A6015AA32C832C232C832C232C832C2F8
:1045C0001B681FA913600B0015A90D0013CD13C3A1
:1045D00013CD13C313CD13C3126829AD1A602A007B
:1045E0001FA991C991C291C991C291C991C21B6879
:1045F0001FA813600023AB62FEF7CCFB15A8FEF7E3
:10460000C9FB002E14D029003000FFF713FF28004B
:10461000FEF7C0FB0BA8FEF7BDFB01A8FEF7BAFB37
:1046200004E031680029B6D00EF051FF35B0F0BD7E
:1046300028000249FFF73FFBE9E7C04636E00100EA
:10464000F0B5574D87B029000400FEF7FAFE061EAC
:1046500000D187E0200029001830FFF7AFF9011ED4
:1046600000D17DE07F23007A18400C2809D80FF094
:10467000E3FC7708080808080708680868086E005F
:104680000E78484D20002E70474E3100FEF7D9FEBF
:10469000002800D169E0200031001830FFF78EF9C2
:1046A000FEF7D7FE414E686031002000FEF7C9FEDC
:1046B00000285DD0200031001830FFF77FF900237B
:1046C000984202D0FEF7F6FE0300394E200031007A
:1046D000AB60FEF7B6FE00282AD02300183318007E
:1046E00031000193FFF76AF90700324903A80EF081
:1046F0007BFE380003A9FFF741FF059F03A80EF0DA
:104700002BFE002F14D031000198FFF757F9060057
:10471000284903A80EF068FE300003A9FFF72EFF1A
:10472000280003990C3013F0C2FF03A80EF014FE0A
:1047300020001B49FEF785FE00281CD1012007B090
:10474000F0BD41C90643701E8641F6B299E70022CA
:104750000868496800230FF01FFE4642464190E773
:1047600000268EE7144B1E788BE7134B586899E7A9
:10477000114B9B68A9E720000B49FEF762FE002859
:10478000DCD020000949FEF75CFE0028D6D02000CE
:104790000749FEF756FE01235840C0B2CFE7C04696
:1047A0009ADF010084000020A9DF0100C4DF0100BE
:1047B00003E001002AE001004400002010B50400DD
:1047C000006803681B68984763681818606010BD2C
:1047D000F0B515001C0006008DB02A00230028004B
:1047E00021000FF0D9FD002805D130005549FFF711
:1047F000A3FA0DB0F0BD00220023280021000FF025
:10480000CBFD00280DD12A0023002800210010F044
:104810001FFF02000B00280021000FF0BDFD002843
:10482000E3D100220023280021000FF0BBFD002867
:1048300006D02D213000FFF7C1FF80231B06E418AE
:10484000230026240A272A0003A8FEF7BDFF02AB97
:10485000039DE418280039000FF092FC013C303130
:1048600028002170390000950FF004FC009B050022
:10487000092BEFD8262302AA9B181A1B210030000F
:10488000FFF750FA02AB9B7B5BB20093002B25D065
:104890000A27049C01930AAD019B013D013B5BB2D9
:1048A000019301330BD0200039000FF069FC303147
:1048B0002000297039000FF0DDFB0400ECE76B46A7
:1048C00019782024CB432E2202A81B19C2544A1C5B
:1048D000C9430AAB30005918FFF724FA02AB0C2287
:1048E0009B5E002B00D184E765213000FFF766FF57
:1048F00002AB0C255D5FACB2002D05DA2D21300036
:10490000FFF75CFF6C42A4B2262302AA9B181D008D
:104910000A27200039000FF033FC013D3031200020
:104920002970390000940FF0A5FB009B84B2092B7D
:10493000EFD8262302AA9B18290030005A1BFFF744
:10494000F1F956E736E0010070B504000B4B9D7895
:10495000002D0CD0DA7802338A42F8D15C21200095
:10496000FFF72CFF29002000FFF728FF05E00029B2
:10497000F9D120000249FFF7DFF970BD1AE001000C
:104980003BE00100F8B50300027A7F200C001040E4
:104990000C280DD87E210A420ED002380A280BD8E6
:1049A0000FF04AFB545441416F0A6C0A590A0C003B
:1049B000202833D0402808D035492BE020001A6841
:1049C0005B68FFF705FF60682CE01D683149002D2A
:1049D00020D020003049FFF7AFF9237A013323724A
:1049E0002000FFF7B5F921002800FFF7CBFF2800D2
:1049F000FEF734F92949051E00D129492000FFF7A7
:104A00009BF9002DECD1237A2000013B2372FFF7A4
:104A10009FF924492000FFF78FF9D4E719002000FF
:104A200000F040FBF8BD222160CB2000FFF7C6FE5E
:104A3000AE19AE4205D029782000FFF785FF013579
:104A4000F7E722212000FFF7B9FEBCE7200006CBE4
:104A5000FFF768F9B7E71E685F68002F08DA2D21B5
:104A60002000FFF7ABFE32003B00002756429F417B
:104A700032003B002000FFF77BF9A4E71A685B686F
:104A8000F8E71B780849002BC4D10849C2E7C046A3
:104A900036E001004AE0010046E0010042E001008A
:104AA00043E0010018F401002BE0010030E00100B8
:104AB0001FB5002201AB01911A725A60904204D0D6
:104AC0001900FFF75FFF05B000BD18000249FFF7AE
:104AD00033F90298F7E7C04636E0010080B5284F69
:104AE0002848BD4402F0CCFC274801F043FB0FA846
:104AF000FEF7BAFA01A8FEF7F3FA244A01990FA8C3
:104B000001F0ACFB00281FD1214904A80EF06CFC79
:104B100004A91CA80EF0C9FC01A91CA80EF063FD95
:104B20001C490EF06DFD01001B480DF081FC1CA816
:104B30000EF012FC04A80EF00FFC01A80EF00CFC05
:104B40008E239B009D4480BD1CA8FEF761FC1CA821
:104B5000FEF7DAFF8022002392000FA904A8FEF7D7
:104B60001FFD04A922A8FFF7A3FF04A8FEF755FD27
:104B700013A805F0FBFA04A8FEF75AFDDDE7C046CE
:104B8000C8FDFFFF4DE001001CDE01000106000032
:104B900067E0010087E001007C12002010B52B4C7B
:104BA000A54416A8FEF734FC6846FEF799FA09A852
:104BB000FEF75AFA0022009909A801F04FFB0028DD
:104BC0001FD1234903A80EF00FFC694603A80EF07D
:104BD0000AFD20490EF014FD010006A80EF065FC48
:104BE00006A802F035FC06A80EF0B6FB03A80EF0EE
:104BF000B3FB3E221849194812F009FEFFF76EFF79
:104C000018E009A916A8FFF709FBC4B20DA805F022
:104C1000ADFA002C15D0124802F0BAFB114BA400DB
:104C2000195911480DF0FAFB0024104802F028FC35
:104C3000002CE3D168460EF08FFB88239B009D4437
:104C400010BD16A8FFF7FCFC0400EEE7E0FDFFFF37
:104C50009DE00100BAE00100440000208400002033
:104C6000D9E0010090E201007C120020F4E0010094
:104C700010B50B4802F08CFBFEF702FA094C01005C
:104C800020000DF0DFFB084802F082FB02F0F4F890
:104C9000010020000DF0D6FBFFF780FF10BDC046DD
:104CA00001E101007C12002019E10100F0B57D4C0A
:104CB0000700A54419A80E001400FEF7D5F926A890
:104CC000FEF7A6FB08A8002E00D1ACE0FEF708FA1C
:104CD0000022089919A801F0C1FA002821D019A9C9
:104CE00026A8FFF79BFAC5B2002D1AD06E490BA873
:104CF0000EF07AFB0BA90EA80EF0D7FB6B4BAD00A4
:104D000059590EA80EF090FC69490EF079FC01008B
:104D100068480DF08DFB0EA80EF01EFB0BA80EF0E0
:104D20001BFB26AD002E02D02800FEF7EDFE390059
:104D30000BA80EF0BAFB0BA90FA80E950EF0B5FB51
:104D40000BA80EF009FB0E9E0F9B30000693119BE3
:104D50000F990793119A33001830FEF741FE051E94
:104D600009D07F22037A93431A002023134303724E
:104D70000023036043600FA80EF0EEFA3200280013
:104D80004D49A768FEF78EFE002809D07F22037ADE
:104D9000076093431A000A23FF1713430372476007
:104DA000464B0EA902A8109611930F95FEF75AFFD5
:104DB000434B0EA904A810960F9511930026FEF7F9
:104DC00051FFA368B34231DD236802980193B70015
:104DD000002810D00399FDF7C2FF051E0BD0019BE0
:104DE000D85912F04DFA7F222B7A286069609343DC
:104DF000733A13432B72636804980193002810D010
:104E00000599FDF7ACFF051E0BD0019BD85912F098
:104E100037FA7F222B7A286069609343733A1343F1
:104E20002B720136CDE7FEF785F951E7254A08993F
:104E300019A801F013FA00281FD123490BA80EF07E
:104E4000D3FA0BA90EA80EF030FB08A90EA80EF09D
:104E5000CAFB17490EF0D4FB010016480DF0E8FA22
:104E60000EA80EF079FA0BA80EF076FA08A80EF04C
:104E700073FA99239B009D44F0BD80220023920089
:104E800019A90EA8FEF78CFB0EA92CA8FFF710FE9F
:104E90000EA8FEF7C2FB1DA805F068F90EA8FEF7E4
:104EA000C7FBE3E79CFDFFFFD9E0010090E20100B2
:104EB00087E001007C12002034E101003BE10100A9
:104EC0004AE101000106000055E10100F0B50027AC
:104ED0006A4C8760A544040038000D0016000EF0EF
:104EE000FBFD206038000EF0F7FD206018A8FEF7EB
:104EF0008FFA0BA8FEF7B8F802A8BE4237D0FEF72B
:104F0000EFF8002202990BA801F0A8F9002831D18E
:104F10005B4905A80EF068FA02A905A80EF063FB2C
:104F200058490EF06DFB010008A80EF0BEFA08A863
:104F300002F08EFA08A80EF00FFA05A80EF00CFA8F
:104F40002000FEF721F9290008A80EF0AEFA08A803
:104F500022003100FFF7AAFE08A80EF0FDF902A812
:104F60000EF0FAF920008B239B009D44F0BDFEF764
:104F7000E1F8C6E70BA918A8FFF750F9C6B20FA8C9
:104F800005F0F4F8002E0CD03F4802F001FA3F4B38
:104F9000B60099593E480DF041FA2000FEF7F4F8AA
:104FA000DDE7592302AA9B18DB7F9B065DD52B68A2
:104FB000AA6819001EA808930992FDF796FE00281A
:104FC00053D034491EA8FEF730FA061E03D0037AE8
:104FD0005B06DB171E4030491EA8FEF726FA051EA9
:104FE0000AD0037A5B0607D500270068002832D074
:104FF0000137FDF733FEF9E700252F00A560B80063
:105000000EF06AFD254B2060A06898422AD88000E7
:105010000EF062FD00276060A368BB429FDDBA000E
:10502000944623683900634430000193FDF77DFE08
:10503000FEF70FFA6268019B94461860BB00634458
:10504000390028000193FDF770FEFEF702FA019B7C
:1050500001371860E0E7114BA7609F42CFD90120CC
:105060004042CDE701204042D2E70D4802F090F9DE
:10507000290007480DF0DCF971E7C046D4FDFFFFB9
:105080009DE00100BAE00100D9E0010090E20100DA
:105090007C1200203BE101004AE10100FEFFFF1FFE
:1050A0006DE10100F8B50D6804001F49002D35D0F1
:1050B00022271E49FEF740FE237A01332372200087
:1050C000FEF746FE39002000EE68FFF777FB3178E7
:1050D000002904D020000136FFF736FCF7E739003D
:1050E0002000FFF76BFB20001149FEF725FE210091
:1050F0002800FFF747FC2800FDF7B0FD0D49051E0D
:1051000000D10D492000FEF717FE002DD7D1237ADC
:105110002000013B2372FEF71BFE08492000FEF72A
:105120000BFE6068F8BDC04690E101008CE1010013
:1051300068F1010042E0010043E0010091E101005B
:1051400007B5002103480B000A0000910DF02AF971
:1051500007BDC0465C04002010B5040001210EF01C
:105160009FFE012120000EF0CBFE10BD10B50021E6
:105170000EF0C6FE10BD000010B50400FFF7ECFFF6
:10518000054B013BFDD12000FFF7F0FFC8239B003A
:10519000013BFDD110BDC04600350C00F8B53026EE
:1051A00004003027244D76422000FFF7D5FF300061
:1051B0006843224B0321C0180EF05CFF0138FDD17B
:1051C0002000FFF7D3FF002D06D0380003216843ED
:1051D0000EF050FF0138FDD1194BED18194B9D42CF
:1051E000E2D12000FFF7B8FF174B013BFDD130267D
:1051F0000025302776422000FFF7AEFF30006843DD
:105200000E4B0321C0180EF035FF0138FDD12000F0
:10521000FFF7ACFF002D06D03800032168430EF0E5
:1052200029FF0138FDD1094BED18094B9D42E2D110
:105230002000FFF79BFFF8BD6842000000A60E00AB
:1052400048F4FFFF18FCFFFF00E20400B80B000069
:105250005046000010B5064B9A7BD20606D51022A8
:10526000997B0A439A73034B1B68984710BDC0464D
:10527000002C0042A804002030B589B06C461149CA
:1052800005A80EF0B1F8104D012205A92000FFF786
:105290001DFE0ECC0EC505A80EF05EF80B4D2321A9
:1052A00028000B4A08F094FB041E05D1094802F0BF
:1052B000E7F8200009B030BDFE222121280008F0C7
:1052C000AFFBF6E7E4E2010004050020AC04002097
:1052D000EC0D0020F1E2010070B50F4D280008F040
:1052E00029FC041C280008F033FC002812D02800F8
:1052F00008F02AFB10F070F9211C0FF00FFE041CBF
:10530000280008F030FB10F067F9011C201C0FF09A
:105310003BFC041C201C70BDAC04002070B50A4D81
:105320000021280008F0DCFB041E0BD0FFF7D4FF9F
:1053300011F0A6FF054BFE221860596021212800BC
:1053400008F06EFB200070BDAC040020C8000020F7
:1053500010B5044B1868596811F0DAFF0249FDF7DF
:1053600083FF10BDC800002004050020084B10B5C5
:105370009B68002B06DD074B1B78002B02D1FFF743
:10538000E7FF10BD044B1868596811F0C1FFF8E73A
:105390000405002084000020C800002010B5FFF79D
:1053A000BDFF002815D00B4B1868596811F0B0FFED
:1053B000011C094801F064FF084B9B68002B05DDC8
:1053C000FFF7C6FF011C064801F05AFF054802F02E
:1053D00057F810BDC80000200FE3010004050020AD
:1053E00023E301002AE00100F0B505002E0087B09C
:1053F000019103A82E490C360DF0F6FF310003A8E9
:105400000EF03AF9070003A80DF0A6FF294C002F73
:105410001AD0294B1868596811F07AFF2200696A7E
:10542000FDF7C0FE254903A80DF0DEFF2200012193
:1054300003A8FFF73BFC03A80DF08EFF2000FDF74B
:105440007DFF002007B0F0BD1D4903A80DF0CCFF83
:10545000310003A80EF010F9070003A80DF07CFF3F
:10546000002F03D02200696B686AD9E7154903A8A9
:105470000DF0BAFF310003A80EF0FEF8050003A8F6
:105480000DF06AFF002D03D02000FDF77DFEC9E777
:10549000019801F0BDFF0C4801F0BAFF0B4801F084
:1054A000EFFF2000FDF74AFF094801F0E9FFC8E7D8
:1054B0003EE3010004050020C8000020E4E20100F2
:1054C00041E3010045E301004BE30100D8E60100A0
:1054D0004AF3010013B500240648230022002100EE
:1054E00000940CF05FFF044808F09AF9034B9C60AD
:1054F00013BDC046FC040020AC04002004050020BD
:1055000007B513200EF054FC13200EF051FC10F0E0
:1055100063F80190019811F0B3FE054A054B11F0B4
:1055200007F80022044B10F0FDFB11F0F1FE0EBD58
:10553000A4703D0AD7A30A4000F88F4010B5082098
:10554000FFF70AFE01210B200EF0AAFC0021132018
:105550000EF0A6FC01210B200EF0D2FC0EF0F6F9A5
:10556000034B1860FFF7CCFF024B186010BDC0461C
:10557000180500201C05002073B50EF0E7F9264C35
:105580002368C833984233D30EF0E0F92060FFF768
:10559000B7FF802101900198C9050EF051FF1F4E01
:1055A000051E1F4C29D00EF0D1F9FA223368920063
:1055B0009B181C4D98421CD91B4B1B78002B07D005
:1055C00000210B200EF09CFC01232B700023237084
:1055D0002B78002B02D10C20FFF7BEFD237808208A
:1055E000002B15D00F4B1B78002B11D1FFF7B4FD0A
:1055F00073BD012322785340E9E70C20FFF7B6FD85
:105600000EF0A4F90122084B30601A702570E5E70E
:10561000FFF7ACFDECE7C04614050020180500209C
:1056200011050020100500202005002030B50E4C8B
:1056300089B0200008F0ACFA20006C4676220B49B5
:1056400008F0DAFA0A4905A80DF0CEFE094D00224D
:1056500005A92000FFF73AFC0ECC0EC505A80DF0F9
:105660007BFE09B030BDC0462C050020EC0D0020AB
:10567000B0D201004C05002010B50821014808F007
:10568000E9FB10BD2C05002010B5FFF7F5FF002148
:10569000041C0EF0BBFE00280DD108498B68002BBE
:1056A00007DD074B1B78002B03D1201CFDF7DCFD29
:1056B000041C201C10BD034CFBE7C0464C05002019
:1056C000840000200000C07F074B10B59B68002BB2
:1056D00006DD064B1B78002B02D1FFF7D5FF10BD6E
:1056E000FFF7CAFFFBE7C0464C05002084000020FE
:1056F00010B50EF02BF903220C4B4343D3410C4A57
:10570000934212D8FFF7B8FF011C0A4801F0B8FD18
:10571000094B9B68002B05DDFFF7B6FF011C07480E
:1057200001F0AEFD064801F0ABFE10BDD578E926CC
:105730003789410016E701004C05002028E70100E9
:105740002AE00100F0B505002F0087B0019103A801
:105750002D490C370DF048FE390003A80DF08CFFE1
:10576000060003A80DF0F8FD284C002E17D0FFF717
:1057700083FF2200696AFDF715FD254903A80DF096
:1057800033FE2200002103A8FFF790FA03A80DF0D2
:10579000E3FD2000FDF7D2FD002007B0F0BD1D495C
:1057A00003A80DF021FE390003A80DF065FF00905D
:1057B00003A80DF0D1FD009B002B03D02200696BE4
:1057C000686AD8E7144903A80DF00EFE390003A853
:1057D0000DF052FF050003A80DF0BEFD002D03D013
:1057E0002000FDF7D1FCC8E7019801F011FE0B483D
:1057F00001F00EFE0A4801F043FE2000FDF79EFD79
:10580000084801F03DFEC7E73EE301004C050020DB
:10581000B0D2010041E3010045E3010041E701008E
:10582000FAEA01004AF3010013B5002407482300F7
:105830002200210000940CF0B5FD7621044808F008
:1058400091F9044B1C605C609C6013BD2405002032
:105850002C0500204C050020382342689A43303B39
:10586000134343607047382342689A43283B1343ED
:1058700043607047072342689A43033B13434360E6
:10588000704700004268024B134043607047C046B7
:10589000FFFDFFFF072342689A43053B1343436024
:1058A0007047802342689B0013434360704770B584
:1058B00005000C000A2904D140680D2103681B680B
:1058C00098476868210003681B68984770BD0020EE
:1058D000704700207047012070470020002170476A
:1058E00070B50C1E09D04568080012F0E8FE2B6860
:1058F0000200210028005B68984770BD10B50400C5
:1059000003680C3B186820188847200010BD10B5AC
:10591000040003681B689847200010BD70B5224D35
:105920002B68002B0BD1214C2149200006F010FEE2
:105930000A212000FFF7EBFF002011F0D3FD9B7B35
:10594000002BF9D0194C012B07D12000194906F082
:10595000FFFD0A212000FFF7DAFF2000164906F0BC
:10596000F7FD20001549FFF7C9FF1549FFF7C6FFEE
:105970002B681448997B05F041FE2000124906F07F
:10598000E7FD2B682000997B06F040FF0A212000EC
:10599000FFF7BDFF20000D4906F0DAFD2B6820005F
:1059A000597C06F033FFC3E79405002078050020FA
:1059B00038EB01004AEB01007BEB01006758000067
:1059C000A35800007C12002096EB01008AEB010036
:1059D000F7B5444C0A212000FFF799FF2000424907
:1059E00006F0B6FD0025AB04404A414F0093ABB230
:1059F0000193AB049A183B68934200D85A1E3D4E5F
:105A0000A904306806F004FA00280DD13A492000B4
:105A100006F09EFD3949200006F09AFD0A2120007B
:105A2000FFF775FFFFF77AFF2E21200006F06BFDD0
:105A30003F22ABB21340934203D10A212000FFF76B
:105A400066FF8022D2029446009B3A686344013587
:105A50009A42C8D80A212000FFF759FF284D00219B
:105A60002A00306806F0E1FA002805D1224920001A
:105A700006F06EFD2349CEE720002349FFF73EFFE5
:105A80002249FFF73BFF3022036821490C3B1B688A
:105A9000C254FFF733FF20001E4906F059FD0422CF
:105AA000236829780C3B1B682000E318DA6006F0B5
:105AB000ADFE0A212000FFF72AFF20001649FFF75C
:105AC0001DFF1649FFF71AFF2022036814490C3BFB
:105AD0001B68C254FFF712FF2000124906F038FD80
:105AE000F7BDC046780500209AEB0100FFFF0300D8
:105AF0007405002094050020A3EB0100ABEB01002E
:105B000098050020B8EB010067580000A35800007A
:105B100075580000C2EB010059580000855800007C
:105B200095580000D3EB01008020104B10B5196888
:105B30000F4B104A1C6890B00F4BC004844206D92A
:105B4000684603F04FFB002805D1FFF7E7FE05A8E4
:105B500005F0D0FAF7E7094C0949200006F0F8FCF7
:105B60000A212000FFF7D3FE10B010BD94050020DD
:105B700074050020980500207C1200207805002084
:105B8000DFEB010020220D4B0D491A720D4A1960FE
:105B9000DA6002221A7400220B495A6159601A769F
:105BA0000A490B4B5960A82189031A601A81D960F0
:105BB0001A829A745A611A767047C0467805002096
:105BC0009CEF01000A1000007C12002000093D003B
:105BD0005805002010B50DF0BFFE0400074808F07E
:105BE0003CFA002802DB0DF0B7FE04000DF0B4FE15
:105BF000034B001B9842F1D910BDC0467C12002017
:105C00000F270000F0B5764C7649200085B006F0ED
:105C10009FFC0A212000FFF77AFE734D280008F050
:105C2000FFF9002802D10DF0D1FEF6E7280008F0B8
:105C300014FAC0B213F056FCC6B2FFF7CBFF310026
:105C4000200006F060FC0A212000FFF760FE592EBC
:105C500005D02000654906F07BFC05B0F0BD644A24
:105C600001AB1268634E1A7001225A703000002393
:105C70000199614A06F0A0F9604B1E60B37B002BCE
:105C80000DD05F49200006F063FC5E49200006F05D
:105C90005FFC0A212000FFF73AFEFFF73FFE3000CD
:105CA00006F079F8584E3060002805D1544920009C
:105CB00006F04EFC5549E9E72000554906F048FC3E
:105CC000306811F0B7FA534A534B10F031FC020020
:105CD0000B00200006F062FC2000504906F038FC62
:105CE00020004F4906F034FC306811F0A3FA00227E
:105CF0004C4B10F01DFC02000B00200006F04EFC87
:105D00002000494906F024FC4849200006F020FC08
:105D1000802233684649D204934205D880224549FF
:105D2000D203934200D84449200006F011FC200021
:105D3000424906F00DFC0A212000FFF7E8FD28008B
:105D400008F06EF9002802D10DF040FEF7E72800B8
:105D500008F083F90500FF27FFF73CFF28003840D3
:105D600013F0C0FB0500C6B23100200006F0CBFBEB
:105D70000A212000FFF7CBFD29003148394012F0FD
:105D80007EFC304900281FD02F4B1B7C002B02D0FB
:105D90002E4804F0EBF9902100222D4BC9005A50F7
:105DA0002C495A509122D2009858002801D006F070
:105DB000F6F83300453B012B0ED8FFF709FE462EBF
:105DC00001D1FFF7B1FE2449200006F0C1FB0A21F2
:105DD0002000FFF79CFD40E7512EF4D1F1E7C046CB
:105DE000780500200AEC01007C120020C2ED0100C1
:105DF000D000002058050020001BB70094050020AB
:105E0000A3EB0100E3ED010074050020F5ED0100B6
:105E10000EEE010095D626E80B2EA13E1BEE0100EA
:105E20000FEE01000000A03E31EE01004AEE01003D
:105E300061EE010068EE01006FEE010076EE0100F8
:105E400017EF01001BEF01004C0800205C08002048
:105E500080080020840400003CEF010070B501249C
:105E600013000B4A14700B4A1278002A02D001204A
:105E7000404270BD0A0001009120074DC0005B0A3E
:105E800028585C0206F0A7F80028F0D02000F0E7C0
:105E900099070020980700208008002070B5012491
:105EA00013000B4A14700B4A1278002A02D001200A
:105EB000404270BD0A0001009120074DC0005B0AFE
:105EC00028585C0206F0B6F80028F0D02000F0E771
:105ED0009907002098070020800800200122074B26
:105EE00010B51A70064B1B78002B05D19123054A7B
:105EF000DB00D05805F011FE10BDC0469907002008
:105F0000980700208008002013B50D4B0D4C00931E
:105F1000200000210C4B0D4A08F05EFB0C4B2000CA
:105F2000009300210B4B0C4A08F06CFB0022200070
:105F3000110008F061FB200008F06EFB13BDC046A5
:105F4000B8EF01009C07002056F20100B4EF0100F9
:105F5000DD5E00009D5E00005D5E0000002110B56A
:105F6000034B01220348197008F046FB10BDC046E0
:105F7000980700209C0700209023154ADB00D35887
:105F800010B5002B15D0DC691979013C80234C43F6
:105F90009B00220000210F4808F027FBFFF7DEFFDF
:105FA0000D4801F015FA0A22E10A0C480CF0C3FA78
:105FB00010BD0B4BD358002B07D00121094A9A5C26
:105FC00091408622D2009C58E0E719001C00DDE7D2
:105FD000800800209C070020BCEF01007C120020FC
:105FE00084040000450400000122044B10B51A701F
:105FF00000220348110008F0FFFA10BD98070020A6
:106000009C0700200022014B1A707047990700205E
:106010000122014B1A7070470008002010B50BF0E8
:10602000DDF8002804D00BF0E1F801235840C0B29D
:1060300010BD000010B5024808F0BAFA10BDC04605
:106040009C0700207047000037B505000C0068462B
:10605000144901F069FD6A466B4690781278002178
:1060600014325B787F2A08D80C2B06D81F2804D856
:106070005B0103435202134399B26B466A46DB78D5
:106080002980002011795279172B09D83B2907D88C
:106090003B2A05D8DB0249010B435210134398B247
:1060A000208037BD3C0400200A00902100B5C900C3
:1060B000030040588FB0002809D0694600230B80A8
:1060C0008B700100684604F0ADF80FB000BD0749C1
:1060D00059580029F9D031236B4418706B46588603
:1060E0000300684602F03EFDEFE7C046840400006E
:1060F00030B585B004000D0002A80A4901F014FD76
:106100006B465B7AFA2201936B461B7AD2009B188E
:10611000009320002B00044A044912F083FA200067
:1061200005B030BD3C040020B4EF0100E6EF0100F3
:1061300070B588B006AC05000E0020000B4901F0D8
:10614000F3FCFA2122786378C90004965218617929
:106150002800039121790291E1780191A1780091C1
:10616000034912F05FFA280008B070BD3C0400201B
:10617000F7EF010070B51C4E010005008EB0300035
:10618000FFF792FF041E03D0012420000EB070BD63
:106190009023DB00F158002913D06B4618809870CB
:1061A000124B2A00C9186846012304F0EFF80028B2
:1061B000EAD10F4801F0ECF829000E480CF042F942
:1061C000E3E70D4BF1580029F3D031236B441870ED
:1061D0006B4658868923DB00C9182A0001236846CC
:1061E00002F08EFEE3E7C046800800204404000071
:1061F00018F001007C1200208404000010B5024851
:1062000006F0A8F810BDC0464960000070B50F49FF
:1062100004000F2800D90E490E4D28000CF0EDF8AF
:106220001022210028000CF05EF90B4E300001F026
:10623000CFF82100280005F0E1F9300001F0C8F89E
:106240002800210005F0B8FA70BDC04632F0010008
:1062500036F001007C1200203BF20100F7B5070088
:106260000500103738000E0003F0EAFF2B7C019385
:10627000002B18D131001B48FFF716FF041E07D072
:10628000194801F085F8300001F0FAF8002408E020
:106290002B7C002B07D1154801F07AF8300001F073
:1062A000EFF82000FEBD380003F00EFF041E05D0FD
:1062B0002B7C002B02D06B7CDB07F2D50C4801F065
:1062C00067F82B7C0120002B01D06B7C1840C0B2FA
:1062D000FFF79CFF07480CF099F8380003F046FFE1
:1062E000D4E7C0468008002039F001004CF00100DE
:1062F00069F001007C12002010B50400FFF7AEFF2A
:10630000002803D00022024B1C601A7110BDC04649
:1063100004080020002330B587B0274D03AA107071
:106320005370264A280003990593049205F044FE11
:106330009123234CDB00E550224BE35C002B08D17A
:10634000009301331A002900200005F0C7F8002847
:1063500019D19125ED0063599B7B002B15D01A486C
:1063600001F056F8194801F013F86359987BFFF7CC
:106370004DFF174801F00CF863591022597C15485D
:106380000CF0B5F8002007B030BD134801F040F81C
:106390009023DB00E358002B07D0DB790F48002B5C
:1063A00000D10F4801F034F8ECE70E4BE358002B16
:1063B000F7D00D4A9B5CF1E70C0D0020001BB700E5
:1063C000800800209A04000079F0010048F10100E3
:1063D00058F101007C1200206BF10100B7F10100BF
:1063E0008CF101008404000044040000F0B50400B6
:1063F00085B006200D000DF06BFB1F272300060063
:10640000094861123B4009182F406805E2057F00EA
:10641000800EED0A0190120F30000297009501F0F6
:1064200021FC300005B0F0BDBC07000073B56B4621
:1064300010319A1D0400080001A903F020FF6B46EB
:10644000D9889888FFF7D2FF0100200001F022FCD4
:10645000104800F0BDFF6B460F4D99880A222800B6
:106460000CF041F80D4E300000F0B2FF6B460A22EE
:10647000D98828000CF037F8300000F0A9FF200080
:1064800001F0C4FC0A22010028000CF054F820009E
:1064900076BDC046D3F101007C120020E4EF01007C
:1064A00090220023D20010B58350054A83509123D7
:1064B000DB00C058002801D005F071FD10BDC046BA
:1064C0008404000010B50548037C002B02D0103076
:1064D00003F04CFE0248FFF7E3FF10BD4C0800201C
:1064E00080080020054B10B51868FFF713FF041E45
:1064F00002D10348FFF7D4FF200010BDD0000020D8
:106500008008002010B504000068002801D1002098
:1065100010BD036822795B68611D98472379984212
:10652000F5D1002301202371F2E770B5037905004E
:106530009B180E001400402B10D9FFF7E3FF002832
:1065400001D1002070BD3F2C08D9286822000368C3
:1065500031005B6898478442F3D1F3E72B79681DDB
:10656000C0182200310011F052F92B7920001B19BC
:106570002B71E7E737B505000E480C000BF03DFF27
:106580000D4800F005FF2B7C002B11D0200012F0ED
:1065900096F80A4D020021002800FFF7C6FF2C22C2
:1065A00001AB9A706B4628002B3A991DFFF7BDFF8F
:1065B00037BDC0467C12002026D901000408002007
:1065C00000B5037C89B0002B15D02C2202ABDA7504
:1065D000081C10F055FE0B00002102001F20019145
:1065E00002310091684405F0A7FD08AB01001A1ABA
:1065F0000248FFF79AFF09B000BDC046040800201A
:1066000007B501AB99706B460122991DFFF78DFF0D
:106610000EBD000070B50400037C0020834227D02B
:10662000144D28000BF0F2FE134E0A213000FFF744
:10663000E7FF3000FFF766FF2000103003F044FD55
:10664000002805D0237C002B02D0637CDB070FD50C
:106650000A4800F09DFE237C0120002B01D0637CC2
:106660001840C0B2FFF7D2FD28000BF0CFFE00208B
:1066700070BDC0467C12002004080020ECF101002F
:10668000F0B52A4D06002900294893B0FFF70CFD0C
:10669000284C00281ED0092229002000FFF7DEFD2B
:1066A000254901A801F040FA210009A8FFF7BEFE24
:1066B00009AA01A9684601F0C1FB009F1F4800F02C
:1066C00087FE0A2239001E480BF035FF1D4B9B68E0
:1066D000BB4228D81C4901A8FFF72AFD1B4909A87D
:1066E000FFF706FD0022174B09A91A73280011F0C5
:1066F000B9FF01A9280011F0B5FF09A8FFF73AFD7D
:10670000237C002B03D02000103003F02FFD290044
:106710000F4A2000FFF7F0FD20003100FFF72AFFAD
:106720002000FFF777FF13B0F0BDC04690000020B7
:10673000800800204C0800203C040020FDF10100EE
:106740007C120020840000201DF2010021F20100D3
:10675000010A0000902310B500241548DB00C45046
:10676000144B154AC4500433C450144B1449C4503C
:106770000433C250A822134B9203C4520433C250B4
:10678000114B124AC452124BC4540233C450114B21
:10679000C4540DF03FFCFA220F4B92009A600F4A4E
:1067A0005C601A601C829C740D4B1C601C7110BDD7
:1067B000800800208404000000093D008C040000D3
:1067C00045600000940400009C04000000000020CC
:1067D0009E040000A40400004C0800209CE101007D
:1067E0000408002013B5002108480B000A0000919E
:1067F0000BF0D8FD064C074920000CF0F5FD2000F9
:10680000054A06490DF006FC13BDC046280D0020C0
:10681000300D00202AE00100000000205933010063
:1068200070B5FEF78BFEFFF76FFB0C20FEF794FCB4
:10683000FCF77AF8E121504D4902280007F05EFC90
:10684000280007F077FC002816D10DF07FF84B4B9D
:10685000984217D94A4800F0BBFDFBF76BFC0028B3
:106860001BD1FEF789FE0D20FEF798FCFBF7FEFF1B
:106870000A200DF0B1F8F0E7280007F0D1FB00285E
:10688000E3D0E7E7FEF778FE0D20FEF775FCFBF797
:10689000EDFF0A200DF0A0F8D2E7FBF7AFFC394C72
:1068A000394920000CF06AFEFA26384800F0B0FDA5
:1068B000B600FFF717FE00280DD1FEF75DFE0D2094
:1068C000FEF75AFC0D20FEF757FCFBF7CFFF300018
:1068D0000DF082F8EDE7FFF791FCFEF7C9F9FEF73E
:1068E000FDF8FFF749FB2A4800F092FDFEF79EFEF7
:1068F000284920000CF042FE274800F089FD00F0F6
:10690000CBF9264920000CF039FE254800F080FD27
:10691000FA26FCF70DF8200022490CF02FFEB600F5
:10692000214800F075FDFEF7A7FC00280AD10C30C5
:10693000FEF722FCFBF79AFF30000DF04DF8FEF752
:106940001BFEEDE7200019490CF018FE1849200045
:106950000CF014FE174C200000F05AFD164800F011
:1069600057FD200000F054FD280007F087FB0C20A5
:10697000FEF7FCFB70BDC0467C120020B70B000088
:106980002AF20100300D00203FF201004AF201001E
:106990005EF201007BF201008AF20100A9F201001F
:1069A000C2F20100E2F2010000F301001CF3010059
:1069B0002DF301003CF3010088F30100F7B5060058
:1069C00017000C1CFFF72AFB00282BD0184D2800BD
:1069D00007F05BFB002824D0002F02D0154800F000
:1069E000F7FC310028000BF008FD134800F0F0FC24
:1069F000201C10F045FC052302000600009328002F
:106A00000B000F000BF056FE0C4800F0E1FC0223D7
:106A10003200009328003B000BF04CFE084800F0C9
:106A2000D7FCF7BD0748211CFFF7CAFDF9E7C046B0
:106A30007C120020D5F30100DAF30100DCF3010041
:106A400026D901004C08002010B50022FFF7B6FF40
:106A500010BD000070B506000C00FFF7DFFA00283B
:106A600011D00B4D280007F010FB00280AD0310090
:106A700028000BF0C2FC210028000BF0BEFC0548EA
:106A800000F0A6FC70BD21000348FFF773FDF9E795
:106A90007C12002026D901004C080020F0B585B0FA
:106AA000FEF76AFD664B1B78002B0ED0FFF79CFAB1
:106AB000FFF708FD0D20FEF759FB0C20FEF756FBF3
:106AC0000820FEF753FB05B0F0BDFBF7CFFEFFF744
:106AD000A5FA00284ED00D20FEF73EFB594B1B783F
:106AE000002BF0D0FEF71AFC0CF030FF0EF074FD16
:106AF000554E041C30680EF06FFD544D5449071C70
:106B000068680EF00BFA011C381C0DF0A1FE011C88
:106B1000201C0DF081FC0028D5D10CF017FF30604F
:106B20004C484D4C037C002B2AD14C4800F070FCA3
:106B3000210001A80CF058FC494C01A920000CF0E0
:106B4000A9FD060001A80CF007FC002E09D0A368DF
:106B500001A800222100013B0CF0FCFD01A80CF073
:106B6000FBFB2068FFF78CFDFDF7B8FF0D20FEF75B
:106B700015FBD5E73B4B18700D20FEF7F7FAB1E790
:106B8000FFF748FD0028D0D02B78002B06D0FFF768
:106B900045FA002802D0344800F0FAFB01A8FBF7C0
:106BA00009FB01993148FFF755FFFEF78DFD011CE8
:106BB0002F48FFF749FF00F0C3F8002000F01CF950
:106BC000011C2C48FFF740FF012000F015F9011CC3
:106BD0002948FFF739FF022000F00EF9011C274871
:106BE000FFF732FFFBF7FCFE011C2548FFF72CFFE7
:106BF000FEF7BCFB011C2348FFF726FFFBF796FAC4
:106C0000011C2148FFF720FF204800F0E1FB00F0C5
:106C100057FC0A2201001E480BF065FC200000F022
:106C2000D7FB00F04DFC0EF091FC011C1948FFF75A
:106C30000BFF0C20FEF7A0FA01A80CF08DFB42E739
:106C4000100500204A0400203C0D00208400002094
:106C500000007A444C08002026D90100DFF301002F
:106C6000300D002049040020FBF301001AF401005C
:106C700033E7010024F401002CF4010034F4010096
:106C80003CF4010049F4010056F401005EF40100F7
:106C90007C12002063F40100F0B5254C91B0200077
:106CA00006F0EEFC20000C2106F06EFD200006F040
:106CB00003FC00241E4EE1B2300006F09FFD1D4A89
:106CC000A300D0501C4904A80CF08EFB04A90AA80C
:106CD0000CF0EBFB0A22210007A80CF009FC07A925
:106CE0000AA80CF080FC0C276D46016867430DA8CC
:106CF0000CF07AFB00220DA92800FEF7E7F80F4BF5
:106D00000DA8DF190ECD0EC70CF026FB07A80CF05E
:106D100023FB0AA80CF020FB013404A80CF01CFB98
:106D2000032CC7D10021300006F068FB11B0F0BD84
:106D3000640D0020980D00206AF40100740D0020FD
:106D400070B50CF003FE0D4D2B68C01A0C4B1B6880
:106D5000984211D900240B4EE1B2300006F04EFDEE
:106D6000094AA3000134D050032CF4D10CF0EEFDFD
:106D70002860300006F0A0FB70BDC046600D00200A
:106D80005C0D0020640D0020980D0020054B9868D4
:106D9000002806D05869002803D0186A431E98417D
:106DA000C0B27047740D00200E4B820070B5D458ED
:106DB00005000D49201C0DF029FB002800D00B4CCC
:106DC000FFF7E4FF00280BD0094B1B78002B07D1FD
:106DD0000C214D430749201C4919FCF745FA041CB6
:106DE000201C70BD980D00200000FEC20000C07F76
:106DF00084000020740D002010B50400FFF7C6FFCA
:106E0000002809D00A4B1B78002B05D12000FFF782
:106E1000CBFF041C201C10BD064BA400E4580649FF
:106E2000201C0DF0F3FA0028F4D0044CF2E7C04621
:106E300084000020980D00200000FEC20000C07FEA
:106E400073B50A0006006946094806F074FA051E83
:106E50000CD000246B4660001A5D064930180134DE
:106E600011F0E0FB082CF5D100233374280076BD27
:106E7000640D002070F4010070B50F4C002120005B
:106E800086B0FFF7DDFF01250226E9B201A8FFF772
:106E9000D7FF002809D0210001A811F0FEFB00282F
:106EA00003DD200001A911F002FC022D02D1200017
:106EB00006B070BD3500E8E795040020F8B50CF089
:106EC00045FD03221D4B4343D3411D4A934234D811
:106ED0000024FFF735FF1B4E1B4BA200D7581B4960
:106EE000381C0DF093FA002800D0194F194800F013
:106EF0004FFA194D0A22210028000BF0F4FA174826
:106F0000391C00F0BDF9B368002B0FDD2000FFF73E
:106F10004BFF071C124800F03BFA21000A22280010
:106F20000BF0E1FA0D48391C00F0AAF901340C36D7
:106F3000032CD1D128000BF069FAF8BDD578E926E9
:106F400037894100740D0020980D00200000FEC21A
:106F50000000C07F75F401007C12002029F40100BC
:106F60007EF40100F0B505002F008FB001910BA851
:106F700090490C370CF038FA39000BA80CF07CFB68
:106F800004000BA80CF0E8F9002C4DD000248A482E
:106F900000F01EFA0A22210088480BF0A4FA884863
:106FA00000F016FA874BA200D7588749381C0DF01D
:106FB0002DFA002800D0854F0C266643844B696A61
:106FC0009E193200381CFCF7EDF8824902A80CF03B
:106FD0000BFA02A908A80CF068FA0A22210005A8F9
:106FE0000CF086FA05A908A80CF0FDFA01680BA8B8
:106FF0000CF0FAF9320000210BA8FDF757FE0BA8A0
:107000000CF0AAF905A80CF0A7F908A80CF0A4F94F
:1070100002A80CF0A1F901343000FCF78FF9032C21
:10702000B5D100200FB0F0BD6B490BA80CF0DCF916
:1070300039000BA80CF020FB06000BA80CF08CF913
:10704000002E41D00A275C4800F0C2F921003A0026
:107050005A480BF048FA5A4800F0BAF90C23634337
:107060005B4E696BF6183200686AFCF79BF85B4967
:1070700002A80CF0B9F902A908A80CF016FA3A0017
:10708000210005A80CF034FA05A908A80CF0ABFA09
:1070900001680BA80CF0A8F9320000210BA8FDF73D
:1070A00005FE0BA80CF058F905A80CF055F908A836
:1070B0000CF052F902A80CF04FF901343000FCF743
:1070C0003DF9032CBFD1ACE745490BA80CF08CF976
:1070D00039000BA80CF0D0FA04000BA80CF03CF916
:1070E000002C41D034000C270A263E4800F070F9ED
:1070F0003200210031480BF0F6F9314800F068F910
:107100003B006343324DED182800FCF73DF833494E
:1071100002A80CF069F902A908A80CF0C6F932001F
:10712000210005A80CF0E4F905A908A80CF05BFA09
:1071300001680BA80CF058F92A0000210BA8FDF7F4
:10714000B5FD0BA80CF008F905A80CF005F908A886
:107150000CF002F902A80CF0FFF801342800FCF74B
:10716000EDF8032CC1D15CE7019800F051F91E48FD
:1071700000F04EF91D4800F083F91D4800F080F939
:107180000C251C4800F024F921000A220B480BF0C2
:10719000AAF90B4800F01CF92B0063430C4801349A
:1071A000C018FCF7CBF8032CEBD1134800F068F9BA
:1071B00037E7C0463EE301008EF401007C12002058
:1071C0006BDE0100980D00200000FEC20000C07FB1
:1071D000740D00206AF4010041E30100ABD201000C
:1071E00045E30100A1F40100B6F4010033F701000A
:1071F00071F70100AAF401004AF3010073B50024FD
:107200000D4823002200210000940BF0CBF80B4E18
:107210000621300005F0AEFF094D3100280006F0D0
:1072200075F828000C2106F0F5F8064B1860064B9F
:107230009C605C611C6273BD400D0020480D002005
:10724000640D00205C0D0020740D002010B5002896
:107250000FD0084C200006F06DFF0749002805D12B
:10726000200006F067FF002803D0044920000BF03F
:10727000C4F810BD7C12002011FC01008FD1010068
:1072800037B50C4C0D1C010020000BF0B6F82000A7
:1072900009490BF0B2F8281C0FF0F2FF0B00052192
:1072A0000200009120000BF005FA200003490BF0CA
:1072B000A4F837BD7C120020DDF3010026D90100BF
:1072C00030B50C00050087B0684629490CF08CF8F1
:1072D000284903A80CF088F803AA694620000CF09E
:1072E00061FA03A80CF038F868460CF035F86846E7
:1072F00021490CF079F8214903A80CF075F803AA8C
:10730000694620000CF04EFA03A80CF025F86846F8
:107310000CF022F868461A490CF066F8194903A8DF
:107320000CF062F803AA694620000CF03BFA03A8AF
:107330000CF012F868460CF00FF8684612490CF091
:1073400053F8124903A80CF04FF8694603AA20002D
:107350000CF028FA03A80BF0FFFF68460BF0FCFFC7
:10736000210028000CF087F8280007B030BDC04687
:10737000E4EF01008FF70100DDF301007FF701006A
:1073800029E0010083F7010026D9010093F70100ED
:1073900000B58BB0010001A80CF0CDF801A904A83C
:1073A0000CF083F804A907A8FFF78AFF07A907488C
:1073B0000BF01CF807A80BF0CFFF04A80BF0CCFFD4
:1073C00001A80BF0C9FF0BB000BDC0467C12002025
:1073D00000B58BB0010001A80CF006F801A904A8C3
:1073E0000CF063F804A907A8FFF76AFF07A907488C
:1073F0000AF0FCFF07A80BF0AFFF04A80BF0ACFFEE
:1074000001A80BF0A9FF0BB000BDC0467C12002004
:1074100000B58BB0010001A80CF08DF801A904A8FB
:107420000CF043F804A907A8FFF74AFF07A907488B
:107430000AF0FEFF07A80BF08FFF04A80BF08CFFEB
:1074400001A80BF089FF0BB000BDC0467C120020E4
:107450007FB5010068460CF028F8694603A8FFF7DD
:107460002FFF03A905480AF0E3FF03A80BF074FF00
:1074700068460BF071FF07B000BDC0467C120020CB
:1074800000B58BB0010001A80BF0AEFF01A904A864
:107490000CF00BF804A907A8FFF712FF07A907488B
:1074A0000AF0C6FF07A80BF057FF04A80BF054FF23
:1074B00001A80BF051FF0BB000BDC0467C120020AC
:1074C00007B5002011F0FAFF6B460733181A0EBDFE
:1074D0000023002243608260037301707047007BC9
:1074E000704780687047407B70470000F7B50E001A
:1074F000150004000021300010F0A5F9174F013DE0
:10750000EAB201232178380000F0DCFD380000F0F9
:107510007CFE00250190380000F065FD002809D0B0
:10752000380000F072FEC0B2002803D0705501355B
:10753000EDB2F0E76B461879FE280BD0FF280BD090
:10754000012804D00123022802D0607BFEBD002365
:107550006373FAE70223FBE70323F9E7EC0D00204E
:1075600010B588B0202269460400FFF7BFFF6073A2
:10757000002804D1237B002B04D104336373607B88
:1075800008B010BD68460FF093FF0FF0C1FEA06079
:10759000F5E7000070B50B4E0C00050001783000D7
:1075A00000F078FD002C07D0200011F088F82100B1
:1075B0000200300000F0F7FC300000F021FE002354
:1075C0002B7370BDEC0D002010B503490400FFF7CC
:1075D000E1FF0123237310BD3FE70100344BF7B5F2
:1075E0001D68002D59D02F002C373B7828009B07B1
:1075F00054D500F075F900284FD080236A7C5B02D7
:1076000093402C4A1B0C9360AC8C08260192002CF2
:1076100008D03020032160430CF02CFD0138FDD14F
:1076200008260024E88C002806D030230321584384
:107630000CF020FD0138FDD12800640800F050F95D
:10764000002803D080235B421C43E4B2013EF6B223
:10765000002EE7D13B789B0701D5E443E4B23F21FC
:10766000154A137801330B40144909788B421AD01C
:1076700011781348137044542B8D002B06D0302002
:10768000032158430CF0F6FC0138FDD180236A7CBD
:107690005B029340019A1B0CD360F7BD00F020F908
:1076A00043425841A7E701233A7813433B70E3E78D
:1076B000A40D002000180040E90D0020E80D002076
:1076C000A80D00200A4B1B6883420ED1094A0A4BC1
:1076D00011781B78994208D03F2011781378013334
:1076E00003401370054B585C704701204042FBE794
:1076F000A40D0020E80D0020E90D0020A80D0020B9
:10770000F0B5428D03000D00944685B0002A04D1E7
:1077100001324260604605B0F0BD02002C321178A3
:10772000C7690222046A08001040FE43019011421A
:1077300001D0ED43EDB25A7C80235B0293401B0CD9
:107740000293029A1B4B9A600393019B002B27D054
:1077500023683B43604623603023032158430CF0E9
:1077600089FC0300013BFDD10823012122680D4261
:1077700019D03A4322600200013AFDD1013BDBB24D
:107780006D08002BF2D1019B002B0ED023681E4008
:107790002660039B029ADA600138FDD10120BAE726
:1077A00023683340D6E73240E4E723681F4327606D
:1077B000EFE7C04600180040084B1B68834209D120
:1077C000074B084A19781278914203D01B78064A71
:1077D000D05C704701204042FBE7C046A40D00206A
:1077E000E80D0020E90D0020A80D00200A4A030042
:1077F000126800209A420DD1084B1878084B40308F
:107800001B78C01A074B184004D5402301385B424F
:10781000184301307047C046A40D0020E90D002038
:10782000E80D00203F000080084B1B6898420CD1F7
:107830008023427C5B0293400021054A05481B0CD3
:107840009360017004480170D3607047A40D00205C
:1078500000180040E90D0020E80D002010B5084C8C
:1078600000232268824208D101210800527C904006
:1078700082B20448826023600B00180010BDC0462D
:10788000A40D00200018004070B5028D0500141EE4
:107890001CD00F4E00243068A84217D0A04201D05F
:1078A000FFF7DCFF2A0001242C3213780949A34397
:1078B000137000220A70084935600A70687C074915
:1078C00004329B0700D403220BF056FC200070BD4D
:1078D000A40D0020E90D0020E80D0020DD7500005A
:1078E00018228369417C01205143034A1B685218C6
:1078F00052689040184070474C03020070B5FA255A
:10790000AD008560094D002408350560050003269B
:107910002C354460446284622C785B00B44333406D
:107920001C432C704174027470BDC04698F701006E
:1079300070B5012503000E0029002C331B780400CC
:107940005B08994330000CF0DBFA290030000CF0A2
:10795000A7FA18214E43054B9A195268F3569540E1
:10796000034ADB019B18E561236270BD4C030200F2
:107970001044004170B50D000400002128000CF0F7
:107980008FFA23002C331B789B0703D40121280096
:107990000CF0B6FA182165744D43064A531959681C
:1079A00001238B406361AB56034ADB019B18A36143
:1079B00070BDC0464C0302002044004170B5040075
:1079C0000D00017CFFF7B4FF617C2000FFF7D2FFC0
:1079D00028000DF0BBFD011CFE2080050DF0D4F841
:1079E0000C490DF09BFA0CF087FD420883B2023A75
:1079F000A2849A1E181E6385E284238506D0302354
:107A0000032158430CF036FB0138FDD12000FFF76D
:107A10003BFF70BD0024744910B5FFF71FFF10BD78
:107A200070B5050000680E00002801D00CF058F871
:107A300010200CF04DF804003200682100F00CFA20
:107A40002C600121200000F024FA70BD10B50F2138
:107A500000F0EEF80006C00F10BDF0B50D0087B0C5
:107A600004AC08220021070020000FF0ECFE6B7927
:107A70000A211800062603930CF0FCFA7043039BBE
:107A80000A2118182B796070180003930CF0F2FA91
:107A90007043039B0A211818EB78A0701800039319
:107AA0000CF0E8FA4643039B28009E19E67000F0AC
:107AB000A0F9061E00D107360A2130000CF0DAFAD0
:107AC0000623584336182671AE780A2130000CF090
:107AD000D1FA06235843361866716E780A213000B1
